{
  "contractName": "DummyToken",
  "abi": [
    {
      "inputs": [],
      "stateMutability": "nonpayable",
      "type": "constructor"
    },
    {
      "anonymous": false,
      "inputs": [
        {
          "indexed": true,
          "internalType": "address",
          "name": "owner",
          "type": "address"
        },
        {
          "indexed": true,
          "internalType": "address",
          "name": "approved",
          "type": "address"
        },
        {
          "indexed": true,
          "internalType": "uint256",
          "name": "tokenId",
          "type": "uint256"
        }
      ],
      "name": "Approval",
      "type": "event"
    },
    {
      "anonymous": false,
      "inputs": [
        {
          "indexed": true,
          "internalType": "address",
          "name": "owner",
          "type": "address"
        },
        {
          "indexed": true,
          "internalType": "address",
          "name": "operator",
          "type": "address"
        },
        {
          "indexed": false,
          "internalType": "bool",
          "name": "approved",
          "type": "bool"
        }
      ],
      "name": "ApprovalForAll",
      "type": "event"
    },
    {
      "anonymous": false,
      "inputs": [
        {
          "indexed": true,
          "internalType": "address",
          "name": "previousOwner",
          "type": "address"
        },
        {
          "indexed": true,
          "internalType": "address",
          "name": "newOwner",
          "type": "address"
        }
      ],
      "name": "OwnershipTransferred",
      "type": "event"
    },
    {
      "anonymous": false,
      "inputs": [
        {
          "indexed": true,
          "internalType": "address",
          "name": "from",
          "type": "address"
        },
        {
          "indexed": true,
          "internalType": "address",
          "name": "to",
          "type": "address"
        },
        {
          "indexed": true,
          "internalType": "uint256",
          "name": "tokenId",
          "type": "uint256"
        }
      ],
      "name": "Transfer",
      "type": "event"
    },
    {
      "inputs": [
        {
          "internalType": "address",
          "name": "to",
          "type": "address"
        },
        {
          "internalType": "uint256",
          "name": "tokenId",
          "type": "uint256"
        }
      ],
      "name": "approve",
      "outputs": [],
      "stateMutability": "nonpayable",
      "type": "function"
    },
    {
      "inputs": [
        {
          "internalType": "address",
          "name": "owner",
          "type": "address"
        }
      ],
      "name": "balanceOf",
      "outputs": [
        {
          "internalType": "uint256",
          "name": "",
          "type": "uint256"
        }
      ],
      "stateMutability": "view",
      "type": "function",
      "constant": true
    },
    {
      "inputs": [
        {
          "internalType": "uint256",
          "name": "tokenId",
          "type": "uint256"
        }
      ],
      "name": "getApproved",
      "outputs": [
        {
          "internalType": "address",
          "name": "",
          "type": "address"
        }
      ],
      "stateMutability": "view",
      "type": "function",
      "constant": true
    },
    {
      "inputs": [
        {
          "internalType": "address",
          "name": "owner",
          "type": "address"
        },
        {
          "internalType": "address",
          "name": "operator",
          "type": "address"
        }
      ],
      "name": "isApprovedForAll",
      "outputs": [
        {
          "internalType": "bool",
          "name": "",
          "type": "bool"
        }
      ],
      "stateMutability": "view",
      "type": "function",
      "constant": true
    },
    {
      "inputs": [],
      "name": "name",
      "outputs": [
        {
          "internalType": "string",
          "name": "",
          "type": "string"
        }
      ],
      "stateMutability": "view",
      "type": "function",
      "constant": true
    },
    {
      "inputs": [],
      "name": "owner",
      "outputs": [
        {
          "internalType": "address",
          "name": "",
          "type": "address"
        }
      ],
      "stateMutability": "view",
      "type": "function",
      "constant": true
    },
    {
      "inputs": [
        {
          "internalType": "uint256",
          "name": "tokenId",
          "type": "uint256"
        }
      ],
      "name": "ownerOf",
      "outputs": [
        {
          "internalType": "address",
          "name": "",
          "type": "address"
        }
      ],
      "stateMutability": "view",
      "type": "function",
      "constant": true
    },
    {
      "inputs": [
        {
          "internalType": "uint256",
          "name": "",
          "type": "uint256"
        }
      ],
      "name": "poems",
      "outputs": [
        {
          "internalType": "uint256",
          "name": "id",
          "type": "uint256"
        },
        {
          "internalType": "address payable",
          "name": "poet",
          "type": "address"
        },
        {
          "internalType": "uint256",
          "name": "addedAt",
          "type": "uint256"
        }
      ],
      "stateMutability": "view",
      "type": "function",
      "constant": true
    },
    {
      "inputs": [],
      "name": "renounceOwnership",
      "outputs": [],
      "stateMutability": "nonpayable",
      "type": "function"
    },
    {
      "inputs": [
        {
          "internalType": "address",
          "name": "from",
          "type": "address"
        },
        {
          "internalType": "address",
          "name": "to",
          "type": "address"
        },
        {
          "internalType": "uint256",
          "name": "tokenId",
          "type": "uint256"
        }
      ],
      "name": "safeTransferFrom",
      "outputs": [],
      "stateMutability": "nonpayable",
      "type": "function"
    },
    {
      "inputs": [
        {
          "internalType": "address",
          "name": "from",
          "type": "address"
        },
        {
          "internalType": "address",
          "name": "to",
          "type": "address"
        },
        {
          "internalType": "uint256",
          "name": "tokenId",
          "type": "uint256"
        },
        {
          "internalType": "bytes",
          "name": "_data",
          "type": "bytes"
        }
      ],
      "name": "safeTransferFrom",
      "outputs": [],
      "stateMutability": "nonpayable",
      "type": "function"
    },
    {
      "inputs": [
        {
          "internalType": "address",
          "name": "operator",
          "type": "address"
        },
        {
          "internalType": "bool",
          "name": "approved",
          "type": "bool"
        }
      ],
      "name": "setApprovalForAll",
      "outputs": [],
      "stateMutability": "nonpayable",
      "type": "function"
    },
    {
      "inputs": [
        {
          "internalType": "bytes4",
          "name": "interfaceId",
          "type": "bytes4"
        }
      ],
      "name": "supportsInterface",
      "outputs": [
        {
          "internalType": "bool",
          "name": "",
          "type": "bool"
        }
      ],
      "stateMutability": "view",
      "type": "function",
      "constant": true
    },
    {
      "inputs": [],
      "name": "symbol",
      "outputs": [
        {
          "internalType": "string",
          "name": "",
          "type": "string"
        }
      ],
      "stateMutability": "view",
      "type": "function",
      "constant": true
    },
    {
      "inputs": [
        {
          "internalType": "address",
          "name": "from",
          "type": "address"
        },
        {
          "internalType": "address",
          "name": "to",
          "type": "address"
        },
        {
          "internalType": "uint256",
          "name": "tokenId",
          "type": "uint256"
        }
      ],
      "name": "transferFrom",
      "outputs": [],
      "stateMutability": "nonpayable",
      "type": "function"
    },
    {
      "inputs": [
        {
          "internalType": "address",
          "name": "newOwner",
          "type": "address"
        }
      ],
      "name": "transferOwnership",
      "outputs": [],
      "stateMutability": "nonpayable",
      "type": "function"
    },
    {
      "inputs": [
        {
          "internalType": "uint256",
          "name": "tokenId",
          "type": "uint256"
        }
      ],
      "name": "tokenURI",
      "outputs": [
        {
          "internalType": "string",
          "name": "",
          "type": "string"
        }
      ],
      "stateMutability": "view",
      "type": "function",
      "constant": true
    },
    {
      "inputs": [
        {
          "internalType": "string[]",
          "name": "_content",
          "type": "string[]"
        }
      ],
      "name": "mint",
      "outputs": [],
      "stateMutability": "nonpayable",
      "type": "function"
    },
    {
      "inputs": [],
      "name": "ownerMint",
      "outputs": [],
      "stateMutability": "nonpayable",
      "type": "function"
    }
  ],
  "bytecode": "0x6080604052604051806080016040528060405180608001604052806040518060400160405280600581526020017f4f4e455f6100000000000000000000000000000000000000000000000000000081525081526020016040518060400160405280600581526020017f4f4e455f6200000000000000000000000000000000000000000000000000000081525081526020016040518060400160405280600581526020017f4f4e455f6300000000000000000000000000000000000000000000000000000081525081526020016040518060400160405280600581526020017f4f4e455f64000000000000000000000000000000000000000000000000000000815250815250815260200160405180608001604052806040518060400160405280600581526020017f54574f5f6100000000000000000000000000000000000000000000000000000081525081526020016040518060400160405280600581526020017f54574f5f6200000000000000000000000000000000000000000000000000000081525081526020016040518060400160405280600581526020017f54574f5f6300000000000000000000000000000000000000000000000000000081525081526020016040518060400160405280600581526020017f54574f5f64000000000000000000000000000000000000000000000000000000815250815250815260200160405180608001604052806040518060400160405280600781526020017f54485245455f610000000000000000000000000000000000000000000000000081525081526020016040518060400160405280600781526020017f54485245455f620000000000000000000000000000000000000000000000000081525081526020016040518060400160405280600781526020017f54485245455f630000000000000000000000000000000000000000000000000081525081526020016040518060400160405280600781526020017f54485245455f6400000000000000000000000000000000000000000000000000815250815250815260200160405180608001604052806040518060400160405280600681526020017f464f55525f61000000000000000000000000000000000000000000000000000081525081526020016040518060400160405280600681526020017f464f55525f62000000000000000000000000000000000000000000000000000081525081526020016040518060400160405280600681526020017f464f55525f63000000000000000000000000000000000000000000000000000081525081526020016040518060400160405280600681526020017f464f55525f640000000000000000000000000000000000000000000000000000815250815250815250600890600462000407929190620005c8565b5061251c600a556101f4600b556000600c556000600d553480156200042b57600080fd5b506040518060400160405280600a81526020017f44756d6d79546f6b656e000000000000000000000000000000000000000000008152506040518060400160405280600481526020017f44434c52000000000000000000000000000000000000000000000000000000008152508160009080519060200190620004b09291906200062a565b508060019080519060200190620004c99291906200062a565b5050506001600681905550620004f4620004e8620004fa60201b60201c565b6200050260201b60201c565b6200085f565b600033905090565b6000600760009054906101000a900473ffffffffffffffffffffffffffffffffffffffff16905081600760006101000a81548173ffffffffffffffffffffffffffffffffffffffff021916908373ffffffffffffffffffffffffffffffffffffffff1602179055508173ffffffffffffffffffffffffffffffffffffffff168173ffffffffffffffffffffffffffffffffffffffff167f8be0079c531659141344cd1fd0a4f28419497f9722a3daafe3b4186f6b6457e060405160405180910390a35050565b82805482825590600052602060002090810192821562000617579160200282015b82811115620006165782518290600462000605929190620006bb565b5091602001919060010190620005e9565b5b50905062000626919062000722565b5090565b8280546200063890620007fa565b90600052602060002090601f0160209004810192826200065c5760008555620006a8565b82601f106200067757805160ff1916838001178555620006a8565b82800160010185558215620006a8579182015b82811115620006a75782518255916020019190600101906200068a565b5b509050620006b791906200074a565b5090565b8280548282559060005260206000209081019282156200070f579160200282015b828111156200070e578251829080519060200190620006fd9291906200062a565b5091602001919060010190620006dc565b5b5090506200071e919062000769565b5090565b5b808211156200074657600081816200073c919062000791565b5060010162000723565b5090565b5b80821115620007655760008160009055506001016200074b565b5090565b5b808211156200078d5760008181620007839190620007b4565b506001016200076a565b5090565b5080546000825590600052602060002090810190620007b1919062000769565b50565b508054620007c290620007fa565b6000825580601f10620007d65750620007f7565b601f016020900490600052602060002090810190620007f691906200074a565b5b50565b600060028204905060018216806200081357607f821691505b602082108114156200082a576200082962000830565b5b50919050565b7f4e487b7100000000000000000000000000000000000000000000000000000000600052602260045260246000fd5b613819806200086f6000396000f3fe608060405234801561001057600080fd5b50600436106101215760003560e01c806370a08231116100ad578063b12dc99111610071578063b12dc99114610308578063b88d4fde14610312578063c87b56dd1461032e578063e985e9c51461035e578063f2fde38b1461038e57610121565b806370a0823114610276578063715018a6146102a65780638da5cb5b146102b057806395d89b41146102ce578063a22cb465146102ec57610121565b806323b872dd116100f457806323b872dd146101c057806342842e0e146101dc5780635768f271146101f85780635b93f270146102145780636352211e1461024657610121565b806301ffc9a71461012657806306fdde0314610156578063081812fc14610174578063095ea7b3146101a4575b600080fd5b610140600480360381019061013b919061247d565b6103aa565b60405161014d9190612ea3565b60405180910390f35b61015e61048c565b60405161016b9190612ebe565b60405180910390f35b61018e600480360381019061018991906124cf565b61051e565b60405161019b9190612e3c565b60405180910390f35b6101be60048036038101906101b991906123fc565b6105a3565b005b6101da60048036038101906101d591906122f6565b6106bb565b005b6101f660048036038101906101f191906122f6565b61071b565b005b610212600480360381019061020d9190612438565b61073b565b005b61022e600480360381019061022991906124cf565b6109f8565b60405161023d9392919061315b565b60405180910390f35b610260600480360381019061025b91906124cf565b610a42565b60405161026d9190612e3c565b60405180910390f35b610290600480360381019061028b9190612291565b610af4565b60405161029d9190613140565b60405180910390f35b6102ae610bac565b005b6102b8610c34565b6040516102c59190612e3c565b60405180910390f35b6102d6610c5e565b6040516102e39190612ebe565b60405180910390f35b610306600480360381019061030191906123c0565b610cf0565b005b610310610d06565b005b61032c60048036038101906103279190612345565b610dde565b005b610348600480360381019061034391906124cf565b610e40565b6040516103559190612ebe565b60405180910390f35b610378600480360381019061037391906122ba565b611093565b6040516103859190612ea3565b60405180910390f35b6103a860048036038101906103a39190612291565b611127565b005b60007f80ac58cd000000000000000000000000000000000000000000000000000000007bffffffffffffffffffffffffffffffffffffffffffffffffffffffff1916827bffffffffffffffffffffffffffffffffffffffffffffffffffffffff1916148061047557507f5b5e139f000000000000000000000000000000000000000000000000000000007bffffffffffffffffffffffffffffffffffffffffffffffffffffffff1916827bffffffffffffffffffffffffffffffffffffffffffffffffffffffff1916145b8061048557506104848261121f565b5b9050919050565b60606000805461049b9061351f565b80601f01602080910402602001604051908101604052809291908181526020018280546104c79061351f565b80156105145780601f106104e957610100808354040283529160200191610514565b820191906000526020600020905b8154815290600101906020018083116104f757829003601f168201915b5050505050905090565b600061052982611289565b610568576040517f08c379a000000000000000000000000000000000000000000000000000000000815260040161055f90613060565b60405180910390fd5b6004600083815260200190815260200160002060009054906101000a900473ffffffffffffffffffffffffffffffffffffffff169050919050565b60006105ae82610a42565b90508073ffffffffffffffffffffffffffffffffffffffff168373ffffffffffffffffffffffffffffffffffffffff16141561061f576040517f08c379a0000000000000000000000000000000000000000000000000000000008152600401610616906130c0565b60405180910390fd5b8073ffffffffffffffffffffffffffffffffffffffff1661063e6112f5565b73ffffffffffffffffffffffffffffffffffffffff16148061066d575061066c816106676112f5565b611093565b5b6106ac576040517f08c379a00000000000000000000000000000000000000000000000000000000081526004016106a390612fe0565b60405180910390fd5b6106b683836112fd565b505050565b6106cc6106c66112f5565b826113b6565b61070b576040517f08c379a0000000000000000000000000000000000000000000000000000000008152600401610702906130e0565b60405180910390fd5b610716838383611494565b505050565b61073683838360405180602001604052806000815250610dde565b505050565b60026006541415610781576040517f08c379a000000000000000000000000000000000000000000000000000000000815260040161077890613100565b60405180910390fd5b6002600681905550600a54600c54106107cf576040517f08c379a00000000000000000000000000000000000000000000000000000000081526004016107c690612f40565b60405180910390fd5b600060019050600e8383905011156107e657600090505b80610826576040517f08c379a000000000000000000000000000000000000000000000000000000000815260040161081d90613120565b60405180910390fd5b60006001905060005b848490508110156108a757601c858583818110610875577f4e487b7100000000000000000000000000000000000000000000000000000000600052603260045260246000fd5b90506020028101906108879190613192565b9050111561089457600091505b808061089f90613551565b91505061082f565b50806108e8576040517f08c379a00000000000000000000000000000000000000000000000000000000081526004016108df90612f60565b60405180910390fd5b6108fb6108f36112f5565b600c546116f0565b6040518060800160405280600c54815260200185859061091b91906134c8565b81526020013373ffffffffffffffffffffffffffffffffffffffff1681526020014281525060096000600c54815260200190815260200160002060008201518160000155602082015181600101908051906020019061097b929190611f4a565b5060408201518160020160006101000a81548173ffffffffffffffffffffffffffffffffffffffff021916908373ffffffffffffffffffffffffffffffffffffffff160217905550606082015181600301559050506001600c60008282546109e391906132e9565b92505081905550505060016006819055505050565b60096020528060005260406000206000915090508060000154908060020160009054906101000a900473ffffffffffffffffffffffffffffffffffffffff16908060030154905083565b6000806002600084815260200190815260200160002060009054906101000a900473ffffffffffffffffffffffffffffffffffffffff169050600073ffffffffffffffffffffffffffffffffffffffff168173ffffffffffffffffffffffffffffffffffffffff161415610aeb576040517f08c379a0000000000000000000000000000000000000000000000000000000008152600401610ae290613020565b60405180910390fd5b80915050919050565b60008073ffffffffffffffffffffffffffffffffffffffff168273ffffffffffffffffffffffffffffffffffffffff161415610b65576040517f08c379a0000000000000000000000000000000000000000000000000000000008152600401610b5c90613000565b60405180910390fd5b600360008373ffffffffffffffffffffffffffffffffffffffff1673ffffffffffffffffffffffffffffffffffffffff168152602001908152602001600020549050919050565b610bb46112f5565b73ffffffffffffffffffffffffffffffffffffffff16610bd2610c34565b73ffffffffffffffffffffffffffffffffffffffff1614610c28576040517f08c379a0000000000000000000000000000000000000000000000000000000008152600401610c1f90613080565b60405180910390fd5b610c32600061170e565b565b6000600760009054906101000a900473ffffffffffffffffffffffffffffffffffffffff16905090565b606060018054610c6d9061351f565b80601f0160208091040260200160405190810160405280929190818152602001828054610c999061351f565b8015610ce65780601f10610cbb57610100808354040283529160200191610ce6565b820191906000526020600020905b815481529060010190602001808311610cc957829003601f168201915b5050505050905090565b610d02610cfb6112f5565b83836117d4565b5050565b60026006541415610d4c576040517f08c379a0000000000000000000000000000000000000000000000000000000008152600401610d4390613100565b60405180910390fd5b6002600681905550600b54600d5410610d9a576040517f08c379a0000000000000000000000000000000000000000000000000000000008152600401610d9190612f40565b60405180910390fd5b610dba610da56112f5565b600d54600a54610db591906132e9565b6116f0565b6001600d6000828254610dcd91906132e9565b925050819055506001600681905550565b610def610de96112f5565b836113b6565b610e2e576040517f08c379a0000000000000000000000000000000000000000000000000000000008152600401610e25906130e0565b60405180910390fd5b610e3a84848484611941565b50505050565b6060600060405180610120016040528060e581526020016136ff60e5913990506000600a905060005b6008805490508110156110695760008186604051602001610e8b929190612e10565b6040516020818303038152906040528051906020012060001c9050600060088381548110610ee2577f4e487b7100000000000000000000000000000000000000000000000000000000600052603260045260246000fd5b9060005260206000200160088481548110610f26577f4e487b7100000000000000000000000000000000000000000000000000000000600052603260045260246000fd5b906000526020600020018054905083610f3f91906135a4565b81548110610f76577f4e487b7100000000000000000000000000000000000000000000000000000000600052603260045260246000fd5b906000526020600020018054610f8b9061351f565b80601f0160208091040260200160405190810160405280929190818152602001828054610fb79061351f565b80156110045780601f10610fd957610100808354040283529160200191611004565b820191906000526020600020905b815481529060010190602001808311610fe757829003601f168201915b50505050509050846110158561199d565b8260405160200161102893929190612d9c565b60405160208183030381529060405294508051600a61104791906133a7565b8461105291906132e9565b93505050808061106190613551565b915050610e69565b508160405160200161107b9190612dee565b60405160208183030381529060405292505050919050565b6000600560008473ffffffffffffffffffffffffffffffffffffffff1673ffffffffffffffffffffffffffffffffffffffff16815260200190815260200160002060008373ffffffffffffffffffffffffffffffffffffffff1673ffffffffffffffffffffffffffffffffffffffff16815260200190815260200160002060009054906101000a900460ff16905092915050565b61112f6112f5565b73ffffffffffffffffffffffffffffffffffffffff1661114d610c34565b73ffffffffffffffffffffffffffffffffffffffff16146111a3576040517f08c379a000000000000000000000000000000000000000000000000000000000815260040161119a90613080565b60405180910390fd5b600073ffffffffffffffffffffffffffffffffffffffff168173ffffffffffffffffffffffffffffffffffffffff161415611213576040517f08c379a000000000000000000000000000000000000000000000000000000000815260040161120a90612f00565b60405180910390fd5b61121c8161170e565b50565b60007f01ffc9a7000000000000000000000000000000000000000000000000000000007bffffffffffffffffffffffffffffffffffffffffffffffffffffffff1916827bffffffffffffffffffffffffffffffffffffffffffffffffffffffff1916149050919050565b60008073ffffffffffffffffffffffffffffffffffffffff166002600084815260200190815260200160002060009054906101000a900473ffffffffffffffffffffffffffffffffffffffff1673ffffffffffffffffffffffffffffffffffffffff1614159050919050565b600033905090565b816004600083815260200190815260200160002060006101000a81548173ffffffffffffffffffffffffffffffffffffffff021916908373ffffffffffffffffffffffffffffffffffffffff160217905550808273ffffffffffffffffffffffffffffffffffffffff1661137083610a42565b73ffffffffffffffffffffffffffffffffffffffff167f8c5be1e5ebec7d5bd14f71427d1e84f3dd0314c0f7b2291e5b200ac8c7c3b92560405160405180910390a45050565b60006113c182611289565b611400576040517f08c379a00000000000000000000000000000000000000000000000000000000081526004016113f790612fc0565b60405180910390fd5b600061140b83610a42565b90508073ffffffffffffffffffffffffffffffffffffffff168473ffffffffffffffffffffffffffffffffffffffff16148061147a57508373ffffffffffffffffffffffffffffffffffffffff166114628461051e565b73ffffffffffffffffffffffffffffffffffffffff16145b8061148b575061148a8185611093565b5b91505092915050565b8273ffffffffffffffffffffffffffffffffffffffff166114b482610a42565b73ffffffffffffffffffffffffffffffffffffffff161461150a576040517f08c379a0000000000000000000000000000000000000000000000000000000008152600401611501906130a0565b60405180910390fd5b600073ffffffffffffffffffffffffffffffffffffffff168273ffffffffffffffffffffffffffffffffffffffff16141561157a576040517f08c379a000000000000000000000000000000000000000000000000000000000815260040161157190612f80565b60405180910390fd5b611585838383611b72565b6115906000826112fd565b6001600360008573ffffffffffffffffffffffffffffffffffffffff1673ffffffffffffffffffffffffffffffffffffffff16815260200190815260200160002060008282546115e09190613401565b925050819055506001600360008473ffffffffffffffffffffffffffffffffffffffff1673ffffffffffffffffffffffffffffffffffffffff168152602001908152602001600020600082825461163791906132e9565b92505081905550816002600083815260200190815260200160002060006101000a81548173ffffffffffffffffffffffffffffffffffffffff021916908373ffffffffffffffffffffffffffffffffffffffff160217905550808273ffffffffffffffffffffffffffffffffffffffff168473ffffffffffffffffffffffffffffffffffffffff167fddf252ad1be2c89b69c2b068fc378daa952ba7f163c4a11628f55a4df523b3ef60405160405180910390a4505050565b61170a828260405180602001604052806000815250611b77565b5050565b6000600760009054906101000a900473ffffffffffffffffffffffffffffffffffffffff16905081600760006101000a81548173ffffffffffffffffffffffffffffffffffffffff021916908373ffffffffffffffffffffffffffffffffffffffff1602179055508173ffffffffffffffffffffffffffffffffffffffff168173ffffffffffffffffffffffffffffffffffffffff167f8be0079c531659141344cd1fd0a4f28419497f9722a3daafe3b4186f6b6457e060405160405180910390a35050565b8173ffffffffffffffffffffffffffffffffffffffff168373ffffffffffffffffffffffffffffffffffffffff161415611843576040517f08c379a000000000000000000000000000000000000000000000000000000000815260040161183a90612fa0565b60405180910390fd5b80600560008573ffffffffffffffffffffffffffffffffffffffff1673ffffffffffffffffffffffffffffffffffffffff16815260200190815260200160002060008473ffffffffffffffffffffffffffffffffffffffff1673ffffffffffffffffffffffffffffffffffffffff16815260200190815260200160002060006101000a81548160ff0219169083151502179055508173ffffffffffffffffffffffffffffffffffffffff168373ffffffffffffffffffffffffffffffffffffffff167f17307eab39ab6107e8899845ad3d59bd9653f200f220920489ca2b5937696c31836040516119349190612ea3565b60405180910390a3505050565b61194c848484611494565b61195884848484611bd2565b611997576040517f08c379a000000000000000000000000000000000000000000000000000000000815260040161198e90612ee0565b60405180910390fd5b50505050565b606060008214156119e5576040518060400160405280600181526020017f30000000000000000000000000000000000000000000000000000000000000008152509050611b6d565b600082905060005b60008214611a17578080611a0090613551565b915050600a82611a109190613376565b91506119ed565b60008167ffffffffffffffff811115611a59577f4e487b7100000000000000000000000000000000000000000000000000000000600052604160045260246000fd5b6040519080825280601f01601f191660200182016040528015611a8b5781602001600182028036833780820191505090505b50905060008290505b60008614611b6557600181611aa99190613401565b90506000600a8088611abb9190613376565b611ac591906133a7565b87611ad09190613401565b6030611adc919061333f565b905060008160f81b905080848481518110611b20577f4e487b7100000000000000000000000000000000000000000000000000000000600052603260045260246000fd5b60200101907effffffffffffffffffffffffffffffffffffffffffffffffffffffffffffff1916908160001a905350600a88611b5c9190613376565b97505050611a94565b819450505050505b919050565b505050565b611b818383611d69565b611b8e6000848484611bd2565b611bcd576040517f08c379a0000000000000000000000000000000000000000000000000000000008152600401611bc490612ee0565b60405180910390fd5b505050565b6000611bf38473ffffffffffffffffffffffffffffffffffffffff16611f37565b15611d5c578373ffffffffffffffffffffffffffffffffffffffff1663150b7a02611c1c6112f5565b8786866040518563ffffffff1660e01b8152600401611c3e9493929190612e57565b602060405180830381600087803b158015611c5857600080fd5b505af1925050508015611c8957506040513d601f19601f82011682018060405250810190611c8691906124a6565b60015b611d0c573d8060008114611cb9576040519150601f19603f3d011682016040523d82523d6000602084013e611cbe565b606091505b50600081511415611d04576040517f08c379a0000000000000000000000000000000000000000000000000000000008152600401611cfb90612ee0565b60405180910390fd5b805181602001fd5b63150b7a0260e01b7bffffffffffffffffffffffffffffffffffffffffffffffffffffffff1916817bffffffffffffffffffffffffffffffffffffffffffffffffffffffff191614915050611d61565b600190505b949350505050565b600073ffffffffffffffffffffffffffffffffffffffff168273ffffffffffffffffffffffffffffffffffffffff161415611dd9576040517f08c379a0000000000000000000000000000000000000000000000000000000008152600401611dd090613040565b60405180910390fd5b611de281611289565b15611e22576040517f08c379a0000000000000000000000000000000000000000000000000000000008152600401611e1990612f20565b60405180910390fd5b611e2e60008383611b72565b6001600360008473ffffffffffffffffffffffffffffffffffffffff1673ffffffffffffffffffffffffffffffffffffffff1681526020019081526020016000206000828254611e7e91906132e9565b92505081905550816002600083815260200190815260200160002060006101000a81548173ffffffffffffffffffffffffffffffffffffffff021916908373ffffffffffffffffffffffffffffffffffffffff160217905550808273ffffffffffffffffffffffffffffffffffffffff16600073ffffffffffffffffffffffffffffffffffffffff167fddf252ad1be2c89b69c2b068fc378daa952ba7f163c4a11628f55a4df523b3ef60405160405180910390a45050565b600080823b905060008111915050919050565b828054828255906000526020600020908101928215611f99579160200282015b82811115611f98578251829080519060200190611f88929190611faa565b5091602001919060010190611f6a565b5b509050611fa69190612030565b5090565b828054611fb69061351f565b90600052602060002090601f016020900481019282611fd8576000855561201f565b82601f10611ff157805160ff191683800117855561201f565b8280016001018555821561201f579182015b8281111561201e578251825591602001919060010190612003565b5b50905061202c9190612054565b5090565b5b8082111561205057600081816120479190612071565b50600101612031565b5090565b5b8082111561206d576000816000905550600101612055565b5090565b50805461207d9061351f565b6000825580601f1061208f57506120ae565b601f0160209004906000526020600020908101906120ad9190612054565b5b50565b60006120c46120bf8461321a565b6131e9565b9050808382526020820190508260005b8581101561210457813585016120ea8882612252565b8452602084019350602083019250506001810190506120d4565b5050509392505050565b600061212161211c84613246565b6131e9565b90508281526020810184848401111561213957600080fd5b6121448482856134dd565b509392505050565b600061215f61215a84613276565b6131e9565b90508281526020810184848401111561217757600080fd5b6121828482856134dd565b509392505050565b600081359050612199816136a2565b92915050565b60008083601f8401126121b157600080fd5b8235905067ffffffffffffffff8111156121ca57600080fd5b6020830191508360208202830111156121e257600080fd5b9250929050565b6000813590506121f8816136b9565b92915050565b60008135905061220d816136d0565b92915050565b600081519050612222816136d0565b92915050565b600082601f83011261223957600080fd5b813561224984826020860161210e565b91505092915050565b600082601f83011261226357600080fd5b813561227384826020860161214c565b91505092915050565b60008135905061228b816136e7565b92915050565b6000602082840312156122a357600080fd5b60006122b18482850161218a565b91505092915050565b600080604083850312156122cd57600080fd5b60006122db8582860161218a565b92505060206122ec8582860161218a565b9150509250929050565b60008060006060848603121561230b57600080fd5b60006123198682870161218a565b935050602061232a8682870161218a565b925050604061233b8682870161227c565b9150509250925092565b6000806000806080858703121561235b57600080fd5b60006123698782880161218a565b945050602061237a8782880161218a565b935050604061238b8782880161227c565b925050606085013567ffffffffffffffff8111156123a857600080fd5b6123b487828801612228565b91505092959194509250565b600080604083850312156123d357600080fd5b60006123e18582860161218a565b92505060206123f2858286016121e9565b9150509250929050565b6000806040838503121561240f57600080fd5b600061241d8582860161218a565b925050602061242e8582860161227c565b9150509250929050565b6000806020838503121561244b57600080fd5b600083013567ffffffffffffffff81111561246557600080fd5b6124718582860161219f565b92509250509250929050565b60006020828403121561248f57600080fd5b600061249d848285016121fe565b91505092915050565b6000602082840312156124b857600080fd5b60006124c684828501612213565b91505092915050565b6000602082840312156124e157600080fd5b60006124ef8482850161227c565b91505092915050565b61250181613447565b82525050565b61251081613435565b82525050565b61251f81613459565b82525050565b6000612530826132a6565b61253a81856132bc565b935061254a8185602086016134ec565b61255381613691565b840191505092915050565b6000612569826132b1565b61257381856132cd565b93506125838185602086016134ec565b61258c81613691565b840191505092915050565b60006125a2826132b1565b6125ac81856132de565b93506125bc8185602086016134ec565b80840191505092915050565b60006125d56032836132cd565b91507f4552433732313a207472616e7366657220746f206e6f6e20455243373231526560008301527f63656976657220696d706c656d656e74657200000000000000000000000000006020830152604082019050919050565b600061263b6026836132cd565b91507f4f776e61626c653a206e6577206f776e657220697320746865207a65726f206160008301527f64647265737300000000000000000000000000000000000000000000000000006020830152604082019050919050565b60006126a1601c836132cd565b91507f4552433732313a20746f6b656e20616c7265616479206d696e746564000000006000830152602082019050919050565b60006126e16021836132cd565b91507f416c6c206465636c61726174696f6e732068617665206265656e206d696e746560008301527f64000000000000000000000000000000000000000000000000000000000000006020830152604082019050919050565b6000612747602a836132cd565b91507f4f6e65206f72206d6f7265206c696e6573206f662074686520706f656d20617260008301527f6520746f6f206c6f6e67000000000000000000000000000000000000000000006020830152604082019050919050565b60006127ad6024836132cd565b91507f4552433732313a207472616e7366657220746f20746865207a65726f2061646460008301527f72657373000000000000000000000000000000000000000000000000000000006020830152604082019050919050565b60006128136019836132cd565b91507f4552433732313a20617070726f766520746f2063616c6c6572000000000000006000830152602082019050919050565b60006128536009836132de565b91507f3c7465787420783d2200000000000000000000000000000000000000000000006000830152600982019050919050565b6000612893602c836132cd565b91507f4552433732313a206f70657261746f7220717565727920666f72206e6f6e657860008301527f697374656e7420746f6b656e00000000000000000000000000000000000000006020830152604082019050919050565b60006128f96038836132cd565b91507f4552433732313a20617070726f76652063616c6c6572206973206e6f74206f7760008301527f6e6572206e6f7220617070726f76656420666f7220616c6c00000000000000006020830152604082019050919050565b600061295f602a836132cd565b91507f4552433732313a2062616c616e636520717565727920666f7220746865207a6560008301527f726f2061646472657373000000000000000000000000000000000000000000006020830152604082019050919050565b60006129c56029836132cd565b91507f4552433732313a206f776e657220717565727920666f72206e6f6e657869737460008301527f656e7420746f6b656e00000000000000000000000000000000000000000000006020830152604082019050919050565b6000612a2b6007836132de565b91507f3c2f746578743e000000000000000000000000000000000000000000000000006000830152600782019050919050565b6000612a6b6020836132cd565b91507f4552433732313a206d696e7420746f20746865207a65726f20616464726573736000830152602082019050919050565b6000612aab602c836132cd565b91507f4552433732313a20617070726f76656420717565727920666f72206e6f6e657860008301527f697374656e7420746f6b656e00000000000000000000000000000000000000006020830152604082019050919050565b6000612b116020836132cd565b91507f4f776e61626c653a2063616c6c6572206973206e6f7420746865206f776e65726000830152602082019050919050565b6000612b516029836132cd565b91507f4552433732313a207472616e73666572206f6620746f6b656e2074686174206960008301527f73206e6f74206f776e00000000000000000000000000000000000000000000006020830152604082019050919050565b6000612bb76021836132cd565b91507f4552433732313a20617070726f76616c20746f2063757272656e74206f776e6560008301527f72000000000000000000000000000000000000000000000000000000000000006020830152604082019050919050565b6000612c1d6031836132cd565b91507f4552433732313a207472616e736665722063616c6c6572206973206e6f74206f60008301527f776e6572206e6f7220617070726f7665640000000000000000000000000000006020830152604082019050919050565b6000612c836016836132de565b91507f2220793d2231302220636c6173733d2262617365223e000000000000000000006000830152601682019050919050565b6000612cc3601f836132cd565b91507f5265656e7472616e637947756172643a207265656e7472616e742063616c6c006000830152602082019050919050565b6000612d036017836132cd565b91507f506f656d2068617320746f6f206d616e79206c696e65730000000000000000006000830152602082019050919050565b6000612d436006836132de565b91507f3c2f7376673e00000000000000000000000000000000000000000000000000006000830152600682019050919050565b612d7f816134b1565b82525050565b612d96612d91826134b1565b61359a565b82525050565b6000612da88286612597565b9150612db382612846565b9150612dbf8285612597565b9150612dca82612c76565b9150612dd68284612597565b9150612de182612a1e565b9150819050949350505050565b6000612dfa8284612597565b9150612e0582612d36565b915081905092915050565b6000612e1c8285612d85565b602082019150612e2c8284612d85565b6020820191508190509392505050565b6000602082019050612e516000830184612507565b92915050565b6000608082019050612e6c6000830187612507565b612e796020830186612507565b612e866040830185612d76565b8181036060830152612e988184612525565b905095945050505050565b6000602082019050612eb86000830184612516565b92915050565b60006020820190508181036000830152612ed8818461255e565b905092915050565b60006020820190508181036000830152612ef9816125c8565b9050919050565b60006020820190508181036000830152612f198161262e565b9050919050565b60006020820190508181036000830152612f3981612694565b9050919050565b60006020820190508181036000830152612f59816126d4565b9050919050565b60006020820190508181036000830152612f798161273a565b9050919050565b60006020820190508181036000830152612f99816127a0565b9050919050565b60006020820190508181036000830152612fb981612806565b9050919050565b60006020820190508181036000830152612fd981612886565b9050919050565b60006020820190508181036000830152612ff9816128ec565b9050919050565b6000602082019050818103600083015261301981612952565b9050919050565b60006020820190508181036000830152613039816129b8565b9050919050565b6000602082019050818103600083015261305981612a5e565b9050919050565b6000602082019050818103600083015261307981612a9e565b9050919050565b6000602082019050818103600083015261309981612b04565b9050919050565b600060208201905081810360008301526130b981612b44565b9050919050565b600060208201905081810360008301526130d981612baa565b9050919050565b600060208201905081810360008301526130f981612c10565b9050919050565b6000602082019050818103600083015261311981612cb6565b9050919050565b6000602082019050818103600083015261313981612cf6565b9050919050565b60006020820190506131556000830184612d76565b92915050565b60006060820190506131706000830186612d76565b61317d60208301856124f8565b61318a6040830184612d76565b949350505050565b600080833560016020038436030381126131ab57600080fd5b80840192508235915067ffffffffffffffff8211156131c957600080fd5b6020830192506001820236038313156131e157600080fd5b509250929050565b6000604051905081810181811067ffffffffffffffff821117156132105761320f613662565b5b8060405250919050565b600067ffffffffffffffff82111561323557613234613662565b5b602082029050602081019050919050565b600067ffffffffffffffff82111561326157613260613662565b5b601f19601f8301169050602081019050919050565b600067ffffffffffffffff82111561329157613290613662565b5b601f19601f8301169050602081019050919050565b600081519050919050565b600081519050919050565b600082825260208201905092915050565b600082825260208201905092915050565b600081905092915050565b60006132f4826134b1565b91506132ff836134b1565b9250827fffffffffffffffffffffffffffffffffffffffffffffffffffffffffffffffff03821115613334576133336135d5565b5b828201905092915050565b600061334a826134bb565b9150613355836134bb565b92508260ff0382111561336b5761336a6135d5565b5b828201905092915050565b6000613381826134b1565b915061338c836134b1565b92508261339c5761339b613604565b5b828204905092915050565b60006133b2826134b1565b91506133bd836134b1565b9250817fffffffffffffffffffffffffffffffffffffffffffffffffffffffffffffffff04831182151516156133f6576133f56135d5565b5b828202905092915050565b600061340c826134b1565b9150613417836134b1565b92508282101561342a576134296135d5565b5b828203905092915050565b600061344082613491565b9050919050565b600061345282613491565b9050919050565b60008115159050919050565b60007fffffffff0000000000000000000000000000000000000000000000000000000082169050919050565b600073ffffffffffffffffffffffffffffffffffffffff82169050919050565b6000819050919050565b600060ff82169050919050565b60006134d53684846120b1565b905092915050565b82818337600083830152505050565b60005b8381101561350a5780820151818401526020810190506134ef565b83811115613519576000848401525b50505050565b6000600282049050600182168061353757607f821691505b6020821081141561354b5761354a613633565b5b50919050565b600061355c826134b1565b91507fffffffffffffffffffffffffffffffffffffffffffffffffffffffffffffffff82141561358f5761358e6135d5565b5b600182019050919050565b6000819050919050565b60006135af826134b1565b91506135ba836134b1565b9250826135ca576135c9613604565b5b828206905092915050565b7f4e487b7100000000000000000000000000000000000000000000000000000000600052601160045260246000fd5b7f4e487b7100000000000000000000000000000000000000000000000000000000600052601260045260246000fd5b7f4e487b7100000000000000000000000000000000000000000000000000000000600052602260045260246000fd5b7f4e487b7100000000000000000000000000000000000000000000000000000000600052604160045260246000fd5b6000601f19601f8301169050919050565b6136ab81613435565b81146136b657600080fd5b50565b6136c281613459565b81146136cd57600080fd5b50565b6136d981613465565b81146136e457600080fd5b50565b6136f0816134b1565b81146136fb57600080fd5b5056fe3c73766720786d6c6e733d22687474703a2f2f7777772e77332e6f72672f323030302f73766722207072657365727665417370656374526174696f3d22784d696e594d696e206d656574222076696577426f783d223020302033353020333530223e3c7374796c653e2e62617365207b2066696c6c3a20626c61636b3b20666f6e742d66616d696c793a2073657269663b20666f6e742d73697a653a20313270783b207d3c2f7374796c653e3c726563742078203d20223130222077696474683d223130302522206865696768743d2231303025222066696c6c3d22776869746522202f3ea2646970667358221220363c5c2a9e8754a38f0f9d792457c82e9b28670ea517f2ec1a0c875421953f1c64736f6c63430008000033",
  "immutableReferences": {},
  "source": "// SPDX-License-Identifier: GPL-3.0-or-later\npragma solidity ^0.8.0;\npragma experimental ABIEncoderV2;\n\nimport { ERC721 } from \"@openzeppelin/contracts/token/ERC721/ERC721.sol\";\nimport { Ownable } from \"@openzeppelin/contracts/access/Ownable.sol\";\nimport { ReentrancyGuard } from \"@openzeppelin/contracts/security/ReentrancyGuard.sol\";\n\ncontract DummyToken is ERC721, ReentrancyGuard, Ownable {\n    string[][] private words = [\n        [\"ONE_a\", \"ONE_b\", \"ONE_c\", \"ONE_d\"],\n        [\"TWO_a\", \"TWO_b\", \"TWO_c\", \"TWO_d\"],\n        [\"THREE_a\", \"THREE_b\", \"THREE_c\", \"THREE_d\"],\n        [\"FOUR_a\", \"FOUR_b\", \"FOUR_c\", \"FOUR_d\"]\n    ];\n\n    mapping(uint => Poem) public poems;\n\n    struct Poem {\n        uint id;\n        string[] lines;\n        address payable poet;\n        // Figure out how to track the owner separately from tracking the poet\n        uint addedAt;\n    }\n\n    uint256 PUBLIC_SUPPLY = 9500;\n    uint256 OWNER_SUPPLY = 500;\n    uint256 publicMintCount = 0;\n    uint256 ownerMintCount = 0;\n\n    function tokenURI(uint256 tokenId) override public view returns (string memory) {\n        string memory svg = '<svg xmlns=\"http://www.w3.org/2000/svg\" preserveAspectRatio=\"xMinYMin meet\" viewBox=\"0 0 350 350\"><style>.base { fill: black; font-family: serif; font-size: 12px; }</style><rect x = \"10\" width=\"100%\" height=\"100%\" fill=\"white\" />';\n        uint256 x = 10;\n        for (uint256 i = 0; i < words.length; i ++) {\n            uint256 seed = uint256(keccak256(abi.encodePacked(i, tokenId)));\n            string memory word = words[i][seed % words[i].length];\n            svg = string(abi.encodePacked(svg, '<text x=\"', uint_to_str(x), '\" y=\"10\" class=\"base\">', word, '</text>'));\n            x += 10 * bytes(word).length;\n        }\n        return string(abi.encodePacked(svg, '</svg>'));\n    }\n\n    function mint(string[] calldata _content) public nonReentrant {\n        // Figure out how to limit minting depending on the senders individual limit\n        require(publicMintCount < PUBLIC_SUPPLY, 'All declarations have been minted');\n        // Validate content to make sure it follows the format of \"Sonnet\" (28 char max split by |)\n        bool validPoem = true;\n        if(_content.length > 14) {\n            validPoem = false;\n        }\n        require(validPoem, 'Poem has too many lines');\n\n        bool validLines = true;\n        for (uint256 i = 0; i < _content.length; i ++) {\n            if(bytes(_content[i]).length > 28) {\n                validLines = false;\n            }\n        }\n        require(validLines, 'One or more lines of the poem are too long');\n\n        _safeMint(_msgSender(), publicMintCount);\n        poems[publicMintCount] = Poem(publicMintCount, _content, payable(msg.sender), block.timestamp);\n        publicMintCount += 1;\n    }\n\n    function ownerMint() public nonReentrant {\n        require(ownerMintCount < OWNER_SUPPLY, \"All declarations have been minted\");\n        _safeMint(_msgSender(), PUBLIC_SUPPLY + ownerMintCount);\n        ownerMintCount += 1;\n    }\n\n    function uint_to_str(uint256 _i)\n        internal\n        pure\n        returns (string memory _uintAsString)\n    {\n        if (_i == 0) {\n            return \"0\";\n        }\n        uint256 j = _i;\n        uint256 len;\n        while (j != 0) {\n            len++;\n            j /= 10;\n        }\n        bytes memory bstr = new bytes(len);\n        uint256 k = len;\n        while (_i != 0) {\n            k = k - 1;\n            uint8 temp = (48 + uint8(_i - (_i / 10) * 10));\n            bytes1 b1 = bytes1(temp);\n            bstr[k] = b1;\n            _i /= 10;\n        }\n        return string(bstr);\n    }\n\n    constructor() ERC721(\"DummyToken\", \"DCLR\") Ownable() {}\n}",
  "sourcePath": "/Users/esc/Code/sonnet/contracts/DummyToken.sol",
  "compiler": {
    "name": "solc",
    "version": "0.8.0+commit.c7dfd78e.Emscripten.clang"
  },
  "schemaVersion": "3.4.4",
  "updatedAt": "2022-02-04T17:02:16.389Z",
  "networkType": "ethereum",
  "devdoc": {
    "kind": "dev",
    "methods": {
      "approve(address,uint256)": {
        "details": "See {IERC721-approve}."
      },
      "balanceOf(address)": {
        "details": "See {IERC721-balanceOf}."
      },
      "getApproved(uint256)": {
        "details": "See {IERC721-getApproved}."
      },
      "isApprovedForAll(address,address)": {
        "details": "See {IERC721-isApprovedForAll}."
      },
      "name()": {
        "details": "See {IERC721Metadata-name}."
      },
      "owner()": {
        "details": "Returns the address of the current owner."
      },
      "ownerOf(uint256)": {
        "details": "See {IERC721-ownerOf}."
      },
      "renounceOwnership()": {
        "details": "Leaves the contract without owner. It will not be possible to call `onlyOwner` functions anymore. Can only be called by the current owner. NOTE: Renouncing ownership will leave the contract without an owner, thereby removing any functionality that is only available to the owner."
      },
      "safeTransferFrom(address,address,uint256)": {
        "details": "See {IERC721-safeTransferFrom}."
      },
      "safeTransferFrom(address,address,uint256,bytes)": {
        "details": "See {IERC721-safeTransferFrom}."
      },
      "setApprovalForAll(address,bool)": {
        "details": "See {IERC721-setApprovalForAll}."
      },
      "supportsInterface(bytes4)": {
        "details": "See {IERC165-supportsInterface}."
      },
      "symbol()": {
        "details": "See {IERC721Metadata-symbol}."
      },
      "tokenURI(uint256)": {
        "details": "See {IERC721Metadata-tokenURI}."
      },
      "transferFrom(address,address,uint256)": {
        "details": "See {IERC721-transferFrom}."
      },
      "transferOwnership(address)": {
        "details": "Transfers ownership of the contract to a new account (`newOwner`). Can only be called by the current owner."
      }
    },
    "version": 1
  },
  "userdoc": {
    "kind": "user",
    "methods": {},
    "version": 1
  }
}