{
  "contractName": "NaiveSonnetPub",
  "abi": [
    {
      "inputs": [],
      "stateMutability": "nonpayable",
      "type": "constructor"
    },
    {
      "anonymous": false,
      "inputs": [
        {
          "indexed": false,
          "internalType": "uint256",
          "name": "id",
          "type": "uint256"
        },
        {
          "indexed": false,
          "internalType": "uint256",
          "name": "createdAt",
          "type": "uint256"
        },
        {
          "indexed": false,
          "internalType": "uint256",
          "name": "poetId",
          "type": "uint256"
        },
        {
          "indexed": false,
          "internalType": "string",
          "name": "name",
          "type": "string"
        },
        {
          "indexed": false,
          "internalType": "string",
          "name": "content",
          "type": "string"
        }
      ],
      "name": "PoemAdded",
      "type": "event"
    },
    {
      "anonymous": false,
      "inputs": [
        {
          "indexed": false,
          "internalType": "uint256",
          "name": "id",
          "type": "uint256"
        },
        {
          "indexed": false,
          "internalType": "uint256",
          "name": "createdAt",
          "type": "uint256"
        },
        {
          "indexed": false,
          "internalType": "string",
          "name": "name",
          "type": "string"
        },
        {
          "indexed": false,
          "internalType": "string",
          "name": "pfpUrl",
          "type": "string"
        },
        {
          "indexed": false,
          "internalType": "address payable",
          "name": "wallet",
          "type": "address"
        }
      ],
      "name": "PoetAdded",
      "type": "event"
    },
    {
      "inputs": [],
      "name": "name",
      "outputs": [
        {
          "internalType": "string",
          "name": "",
          "type": "string"
        }
      ],
      "stateMutability": "view",
      "type": "function",
      "constant": true
    },
    {
      "inputs": [],
      "name": "poemCount",
      "outputs": [
        {
          "internalType": "uint256",
          "name": "",
          "type": "uint256"
        }
      ],
      "stateMutability": "view",
      "type": "function",
      "constant": true
    },
    {
      "inputs": [
        {
          "internalType": "uint256",
          "name": "",
          "type": "uint256"
        }
      ],
      "name": "poems",
      "outputs": [
        {
          "internalType": "uint256",
          "name": "id",
          "type": "uint256"
        },
        {
          "internalType": "uint256",
          "name": "createdAt",
          "type": "uint256"
        },
        {
          "internalType": "uint256",
          "name": "poetId",
          "type": "uint256"
        },
        {
          "internalType": "string",
          "name": "name",
          "type": "string"
        },
        {
          "internalType": "string",
          "name": "content",
          "type": "string"
        }
      ],
      "stateMutability": "view",
      "type": "function",
      "constant": true
    },
    {
      "inputs": [],
      "name": "poetCount",
      "outputs": [
        {
          "internalType": "uint256",
          "name": "",
          "type": "uint256"
        }
      ],
      "stateMutability": "view",
      "type": "function",
      "constant": true
    },
    {
      "inputs": [
        {
          "internalType": "uint256",
          "name": "",
          "type": "uint256"
        }
      ],
      "name": "poets",
      "outputs": [
        {
          "internalType": "uint256",
          "name": "id",
          "type": "uint256"
        },
        {
          "internalType": "uint256",
          "name": "createdAt",
          "type": "uint256"
        },
        {
          "internalType": "string",
          "name": "name",
          "type": "string"
        },
        {
          "internalType": "string",
          "name": "pfpUrl",
          "type": "string"
        },
        {
          "internalType": "address payable",
          "name": "wallet",
          "type": "address"
        }
      ],
      "stateMutability": "view",
      "type": "function",
      "constant": true
    },
    {
      "inputs": [
        {
          "internalType": "string",
          "name": "_name",
          "type": "string"
        },
        {
          "internalType": "string",
          "name": "_pfpUrl",
          "type": "string"
        }
      ],
      "name": "addPoet",
      "outputs": [],
      "stateMutability": "nonpayable",
      "type": "function"
    },
    {
      "inputs": [
        {
          "internalType": "string",
          "name": "_name",
          "type": "string"
        },
        {
          "internalType": "string",
          "name": "_content",
          "type": "string"
        }
      ],
      "name": "addPoem",
      "outputs": [],
      "stateMutability": "nonpayable",
      "type": "function"
    }
  ],
  "bytecode": "0x6080604052600060015560006002553480156200001b57600080fd5b506040518060400160405280601681526020017f4e6169766520536f6e6e6574205075626c697368657200000000000000000000815250600090805190602001906200006992919062000070565b5062000185565b8280546200007e9062000120565b90600052602060002090601f016020900481019282620000a25760008555620000ee565b82601f10620000bd57805160ff1916838001178555620000ee565b82800160010185558215620000ee579182015b82811115620000ed578251825591602001919060010190620000d0565b5b509050620000fd919062000101565b5090565b5b808211156200011c57600081600090555060010162000102565b5090565b600060028204905060018216806200013957607f821691505b6020821081141562000150576200014f62000156565b5b50919050565b7f4e487b7100000000000000000000000000000000000000000000000000000000600052602260045260246000fd5b610fd380620001956000396000f3fe608060405234801561001057600080fd5b506004361061007d5760003560e01c80631fda53691161005b5780631fda5369146100d85780634c5ee148146100f65780635b93f2701461012a578063e91a977a1461015e5761007d565b806306fdde0314610082578063110aa8f8146100a057806316268c2d146100bc575b600080fd5b61008a61017c565b6040516100979190610c33565b60405180910390f35b6100ba60048036038101906100b59190610a7b565b61020a565b005b6100d660048036038101906100d19190610a7b565b6103f5565b005b6100e0610675565b6040516100ed9190610c95565b60405180910390f35b610110600480360381019061010b9190610ae7565b61067b565b604051610121959493929190610cb0565b60405180910390f35b610144600480360381019061013f9190610ae7565b6107e1565b604051610155959493929190610d11565b60405180910390f35b610166610927565b6040516101739190610c95565b60405180910390f35b6000805461018990610e6d565b80601f01602080910402602001604051908101604052809291908181526020018280546101b590610e6d565b80156102025780601f106101d757610100808354040283529160200191610202565b820191906000526020600020905b8154815290600101906020018083116101e557829003601f168201915b505050505081565b600081511161021857600080fd5b61040081511061022757600080fd5b60008060005b6001548110156102bc576003600082815260200190815260200160002060040160009054906101000a900473ffffffffffffffffffffffffffffffffffffffff1673ffffffffffffffffffffffffffffffffffffffff163373ffffffffffffffffffffffffffffffffffffffff1614156102a957600191508092505b80806102b490610e9f565b91505061022d565b50806102fd576040517f08c379a00000000000000000000000000000000000000000000000000000000081526004016102f490610c55565b60405180910390fd5b6040518060a00160405280600254815260200142815260200183815260200185815260200184815250600460006002548152602001908152602001600020600082015181600001556020820151816001015560408201518160020155606082015181600301908051906020019061037592919061095b565b50608082015181600401908051906020019061039292919061095b565b50905050600260008154809291906103a990610e9f565b91905055507f365fc80e9fcd4fe27d246d922fba4dd14a399681f8062563067aa93b1f7c850c600254428487876040516103e7959493929190610d11565b60405180910390a150505050565b600082511161040357600080fd5b60128251111561041257600080fd5b60006001905060005b6001548110156104ea576104cd8460036000848152602001908152602001600020600201805461044a90610e6d565b80601f016020809104026020016040519081016040528092919081815260200182805461047690610e6d565b80156104c35780601f10610498576101008083540402835291602001916104c3565b820191906000526020600020905b8154815290600101906020018083116104a657829003601f168201915b505050505061092d565b156104d757600091505b80806104e290610e9f565b91505061041b565b508061052b576040517f08c379a000000000000000000000000000000000000000000000000000000000815260040161052290610c75565b60405180910390fd5b6040518060a0016040528060015481526020014281526020018481526020018381526020013373ffffffffffffffffffffffffffffffffffffffff16815250600360006001548152602001908152602001600020600082015181600001556020820151816001015560408201518160020190805190602001906105af92919061095b565b5060608201518160030190805190602001906105cc92919061095b565b5060808201518160040160006101000a81548173ffffffffffffffffffffffffffffffffffffffff021916908373ffffffffffffffffffffffffffffffffffffffff1602179055509050506001600081548092919061062a90610e9f565b91905055507f53cdbd9177ca274f5d2f11e412011c12f973fc3ac020245a31a51e0dcb5840a060015442858533604051610668959493929190610cb0565b60405180910390a1505050565b60015481565b60036020528060005260406000206000915090508060000154908060010154908060020180546106aa90610e6d565b80601f01602080910402602001604051908101604052809291908181526020018280546106d690610e6d565b80156107235780601f106106f857610100808354040283529160200191610723565b820191906000526020600020905b81548152906001019060200180831161070657829003601f168201915b50505050509080600301805461073890610e6d565b80601f016020809104026020016040519081016040528092919081815260200182805461076490610e6d565b80156107b15780601f10610786576101008083540402835291602001916107b1565b820191906000526020600020905b81548152906001019060200180831161079457829003601f168201915b5050505050908060040160009054906101000a900473ffffffffffffffffffffffffffffffffffffffff16905085565b600460205280600052604060002060009150905080600001549080600101549080600201549080600301805461081690610e6d565b80601f016020809104026020016040519081016040528092919081815260200182805461084290610e6d565b801561088f5780601f106108645761010080835404028352916020019161088f565b820191906000526020600020905b81548152906001019060200180831161087257829003601f168201915b5050505050908060040180546108a490610e6d565b80601f01602080910402602001604051908101604052809291908181526020018280546108d090610e6d565b801561091d5780601f106108f25761010080835404028352916020019161091d565b820191906000526020600020905b81548152906001019060200180831161090057829003601f168201915b5050505050905085565b60025481565b600081518351146109415760009050610955565b818051906020012083805190602001201490505b92915050565b82805461096790610e6d565b90600052602060002090601f01602090048101928261098957600085556109d0565b82601f106109a257805160ff19168380011785556109d0565b828001600101855582156109d0579182015b828111156109cf5782518255916020019190600101906109b4565b5b5090506109dd91906109e1565b5090565b5b808211156109fa5760008160009055506001016109e2565b5090565b6000610a11610a0c84610da3565b610d72565b905082815260208101848484011115610a2957600080fd5b610a34848285610e2b565b509392505050565b600082601f830112610a4d57600080fd5b8135610a5d8482602086016109fe565b91505092915050565b600081359050610a7581610f86565b92915050565b60008060408385031215610a8e57600080fd5b600083013567ffffffffffffffff811115610aa857600080fd5b610ab485828601610a3c565b925050602083013567ffffffffffffffff811115610ad157600080fd5b610add85828601610a3c565b9150509250929050565b600060208284031215610af957600080fd5b6000610b0784828501610a66565b91505092915050565b610b1981610def565b82525050565b6000610b2a82610dd3565b610b348185610dde565b9350610b44818560208601610e3a565b610b4d81610f75565b840191505092915050565b6000610b65604783610dde565b91507f4e6f20706f65742065786973747320666f7220746869732077616c6c65742e2060008301527f5365747570206173206120706f6574206265666f7265206372656174696e672060208301527f6120706f656d2e000000000000000000000000000000000000000000000000006040830152606082019050919050565b6000610bf1601c83610dde565b91507f54686174206e616d6520697320616c726561647920696e207573652e000000006000830152602082019050919050565b610c2d81610e21565b82525050565b60006020820190508181036000830152610c4d8184610b1f565b905092915050565b60006020820190508181036000830152610c6e81610b58565b9050919050565b60006020820190508181036000830152610c8e81610be4565b9050919050565b6000602082019050610caa6000830184610c24565b92915050565b600060a082019050610cc56000830188610c24565b610cd26020830187610c24565b8181036040830152610ce48186610b1f565b90508181036060830152610cf88185610b1f565b9050610d076080830184610b10565b9695505050505050565b600060a082019050610d266000830188610c24565b610d336020830187610c24565b610d406040830186610c24565b8181036060830152610d528185610b1f565b90508181036080830152610d668184610b1f565b90509695505050505050565b6000604051905081810181811067ffffffffffffffff82111715610d9957610d98610f46565b5b8060405250919050565b600067ffffffffffffffff821115610dbe57610dbd610f46565b5b601f19601f8301169050602081019050919050565b600081519050919050565b600082825260208201905092915050565b6000610dfa82610e01565b9050919050565b600073ffffffffffffffffffffffffffffffffffffffff82169050919050565b6000819050919050565b82818337600083830152505050565b60005b83811015610e58578082015181840152602081019050610e3d565b83811115610e67576000848401525b50505050565b60006002820490506001821680610e8557607f821691505b60208210811415610e9957610e98610f17565b5b50919050565b6000610eaa82610e21565b91507fffffffffffffffffffffffffffffffffffffffffffffffffffffffffffffffff821415610edd57610edc610ee8565b5b600182019050919050565b7f4e487b7100000000000000000000000000000000000000000000000000000000600052601160045260246000fd5b7f4e487b7100000000000000000000000000000000000000000000000000000000600052602260045260246000fd5b7f4e487b7100000000000000000000000000000000000000000000000000000000600052604160045260246000fd5b6000601f19601f8301169050919050565b610f8f81610e21565b8114610f9a57600080fd5b5056fea26469706673582212208edf056351cf21d632052bc7a977061af08d0d1911a4568ad718a04eca31a66d64736f6c63430008000033",
  "immutableReferences": {},
  "source": "// SPDX-License-Identifier: MIT\npragma solidity ^0.8.0;\n\ncontract NaiveSonnetPub {\n    string public name;\n    uint public poetCount = 0;\n    uint public poemCount = 0;\n    mapping(uint => Poet) public poets;\n    mapping(uint => Poem) public poems;\n\n    struct Poet {\n        uint id;\n        uint createdAt;\n        string name;\n        string pfpUrl;\n        address payable wallet;\n    }\n\n    struct Poem {\n        uint id;\n        uint createdAt;\n        uint poetId;\n        string name;\n        string content;\n    }\n\n    event PoetAdded(\n        uint id,\n        uint createdAt,\n        string name,\n        string pfpUrl,\n        address payable wallet\n    );\n\n    event PoemAdded(\n        uint id,\n        uint createdAt,\n        uint poetId,\n        string name,\n        string content\n    );\n\n    constructor() {\n        name = \"Naive Sonnet Publisher\";\n    }\n\n    function addPoet(string memory _name, string memory _pfpUrl) public {\n        // Require name to exist and be shorter than or equal 18 chars\n        require(bytes(_name).length > 0);\n        require(bytes(_name).length <= 18);\n\n        // Require name be unique #naive O(n)\n        bool uniqueName = true;\n        for (uint256 i = 0; i < poetCount; i ++) {\n            if(hashCompareWithLengthCheck(_name, poets[i].name)) {\n                uniqueName = false;\n            }\n        }\n        require(uniqueName, \"That name is already in use.\");\n\n        // TODO: Require name to be alphanumeric+\"_.-\" only\n\n        poets[poetCount] = Poet(poetCount, block.timestamp, _name, _pfpUrl, payable(msg.sender));\n        poetCount++;\n        \n        emit PoetAdded(poetCount, block.timestamp, _name, _pfpUrl, payable(msg.sender));\n    }\n\n    function addPoem(string memory _name, string memory _content) public {\n        // Require content to exist and be less than 1024 byte length\n        require(bytes(_content).length > 0);\n        require(bytes(_content).length < 1024);\n\n        // Require there to be a poet for the wallet address\n        uint poetId = 0;\n        bool poetFound = false;\n        for (uint256 i = 0; i < poetCount; i ++) {\n            if(msg.sender == poets[i].wallet) {\n                poetFound = true;\n                poetId = i;\n            }\n        }\n        require(poetFound, \"No poet exists for this wallet. Setup as a poet before creating a poem.\");\n        \n        poems[poemCount] = Poem(poemCount, block.timestamp, poetId, _name, _content);\n        poemCount++;\n\n        emit PoemAdded(poemCount, block.timestamp, poetId, _name, _content);\n    }\n\n    function hashCompareWithLengthCheck(string memory a, string memory b) internal pure returns (bool) {\n        if(bytes(a).length != bytes(b).length) {\n            return false;\n        } else {\n            return keccak256(bytes(a)) == keccak256(bytes(b));\n        }\n    }\n}",
  "sourcePath": "/Users/esc/Code/sonnet/contracts/NaiveSonnetPub.sol",
  "compiler": {
    "name": "solc",
    "version": "0.8.0+commit.c7dfd78e.Emscripten.clang"
  },
  "schemaVersion": "3.4.4",
  "updatedAt": "2022-02-15T00:04:32.477Z",
  "networkType": "ethereum",
  "devdoc": {
    "kind": "dev",
    "methods": {},
    "version": 1
  },
  "userdoc": {
    "kind": "user",
    "methods": {},
    "version": 1
  }
}