{
  "contractName": "NaiveSonnetPub",
  "abi": [
    {
      "inputs": [],
      "stateMutability": "nonpayable",
      "type": "constructor"
    },
    {
      "anonymous": false,
      "inputs": [
        {
          "indexed": false,
          "internalType": "uint256",
          "name": "id",
          "type": "uint256"
        },
        {
          "indexed": false,
          "internalType": "uint256",
          "name": "createdAt",
          "type": "uint256"
        },
        {
          "indexed": false,
          "internalType": "uint256",
          "name": "poetId",
          "type": "uint256"
        },
        {
          "indexed": false,
          "internalType": "string",
          "name": "name",
          "type": "string"
        },
        {
          "indexed": false,
          "internalType": "string",
          "name": "content",
          "type": "string"
        }
      ],
      "name": "PoemAdded",
      "type": "event"
    },
    {
      "anonymous": false,
      "inputs": [
        {
          "indexed": false,
          "internalType": "uint256",
          "name": "id",
          "type": "uint256"
        },
        {
          "indexed": false,
          "internalType": "uint256",
          "name": "createdAt",
          "type": "uint256"
        },
        {
          "indexed": false,
          "internalType": "string",
          "name": "name",
          "type": "string"
        },
        {
          "indexed": false,
          "internalType": "string",
          "name": "pfpUrl",
          "type": "string"
        },
        {
          "indexed": false,
          "internalType": "address payable",
          "name": "wallet",
          "type": "address"
        }
      ],
      "name": "PoetAdded",
      "type": "event"
    },
    {
      "anonymous": false,
      "inputs": [
        {
          "indexed": false,
          "internalType": "uint256",
          "name": "id",
          "type": "uint256"
        },
        {
          "indexed": false,
          "internalType": "uint256",
          "name": "createdAt",
          "type": "uint256"
        },
        {
          "indexed": false,
          "internalType": "string",
          "name": "name",
          "type": "string"
        },
        {
          "indexed": false,
          "internalType": "string",
          "name": "pfpUrl",
          "type": "string"
        },
        {
          "indexed": false,
          "internalType": "address payable",
          "name": "wallet",
          "type": "address"
        }
      ],
      "name": "PoetUpdated",
      "type": "event"
    },
    {
      "inputs": [],
      "name": "name",
      "outputs": [
        {
          "internalType": "string",
          "name": "",
          "type": "string"
        }
      ],
      "stateMutability": "view",
      "type": "function"
    },
    {
      "inputs": [],
      "name": "poemCount",
      "outputs": [
        {
          "internalType": "uint256",
          "name": "",
          "type": "uint256"
        }
      ],
      "stateMutability": "view",
      "type": "function"
    },
    {
      "inputs": [
        {
          "internalType": "uint256",
          "name": "",
          "type": "uint256"
        }
      ],
      "name": "poems",
      "outputs": [
        {
          "internalType": "uint256",
          "name": "id",
          "type": "uint256"
        },
        {
          "internalType": "uint256",
          "name": "createdAt",
          "type": "uint256"
        },
        {
          "internalType": "uint256",
          "name": "poetId",
          "type": "uint256"
        },
        {
          "internalType": "string",
          "name": "name",
          "type": "string"
        },
        {
          "internalType": "string",
          "name": "content",
          "type": "string"
        }
      ],
      "stateMutability": "view",
      "type": "function"
    },
    {
      "inputs": [],
      "name": "poetCount",
      "outputs": [
        {
          "internalType": "uint256",
          "name": "",
          "type": "uint256"
        }
      ],
      "stateMutability": "view",
      "type": "function"
    },
    {
      "inputs": [
        {
          "internalType": "uint256",
          "name": "",
          "type": "uint256"
        }
      ],
      "name": "poets",
      "outputs": [
        {
          "internalType": "uint256",
          "name": "id",
          "type": "uint256"
        },
        {
          "internalType": "uint256",
          "name": "createdAt",
          "type": "uint256"
        },
        {
          "internalType": "string",
          "name": "name",
          "type": "string"
        },
        {
          "internalType": "string",
          "name": "pfpUrl",
          "type": "string"
        },
        {
          "internalType": "address payable",
          "name": "wallet",
          "type": "address"
        }
      ],
      "stateMutability": "view",
      "type": "function"
    },
    {
      "inputs": [
        {
          "internalType": "string",
          "name": "_name",
          "type": "string"
        },
        {
          "internalType": "string",
          "name": "_pfpUrl",
          "type": "string"
        }
      ],
      "name": "updatePoet",
      "outputs": [],
      "stateMutability": "nonpayable",
      "type": "function"
    },
    {
      "inputs": [
        {
          "internalType": "string",
          "name": "_name",
          "type": "string"
        },
        {
          "internalType": "string",
          "name": "_pfpUrl",
          "type": "string"
        }
      ],
      "name": "addPoet",
      "outputs": [],
      "stateMutability": "nonpayable",
      "type": "function"
    },
    {
      "inputs": [
        {
          "internalType": "string",
          "name": "_name",
          "type": "string"
        },
        {
          "internalType": "string",
          "name": "_content",
          "type": "string"
        }
      ],
      "name": "addPoem",
      "outputs": [],
      "stateMutability": "nonpayable",
      "type": "function"
    }
  ],
  "bytecode": "0x6080604052600060015560006002553480156200001b57600080fd5b506040518060400160405280601681526020017f4e6169766520536f6e6e6574205075626c697368657200000000000000000000815250600090805190602001906200006992919062000070565b5062000185565b8280546200007e9062000120565b90600052602060002090601f016020900481019282620000a25760008555620000ee565b82601f10620000bd57805160ff1916838001178555620000ee565b82800160010185558215620000ee579182015b82811115620000ed578251825591602001919060010190620000d0565b5b509050620000fd919062000101565b5090565b5b808211156200011c57600081600090555060010162000102565b5090565b600060028204905060018216806200013957607f821691505b6020821081141562000150576200014f62000156565b5b50919050565b7f4e487b7100000000000000000000000000000000000000000000000000000000600052602260045260246000fd5b61153f80620001956000396000f3fe608060405234801561001057600080fd5b50600436106100885760003560e01c80634c5ee1481161005b5780634c5ee148146101015780635b93f27014610135578063aded154014610169578063e91a977a1461018557610088565b806306fdde031461008d578063110aa8f8146100ab57806316268c2d146100c75780631fda5369146100e3575b600080fd5b6100956101a3565b6040516100a2919061115f565b60405180910390f35b6100c560048036038101906100c09190610edb565b610231565b005b6100e160048036038101906100dc9190610edb565b61041c565b005b6100eb610752565b6040516100f89190611201565b60405180910390f35b61011b60048036038101906101169190610f47565b610758565b60405161012c95949392919061121c565b60405180910390f35b61014f600480360381019061014a9190610f47565b6108be565b60405161016095949392919061127d565b60405180910390f35b610183600480360381019061017e9190610edb565b610a04565b005b61018d610d87565b60405161019a9190611201565b60405180910390f35b600080546101b0906113d9565b80601f01602080910402602001604051908101604052809291908181526020018280546101dc906113d9565b80156102295780601f106101fe57610100808354040283529160200191610229565b820191906000526020600020905b81548152906001019060200180831161020c57829003601f168201915b505050505081565b600081511161023f57600080fd5b61040081511061024e57600080fd5b60008060005b6001548110156102e3576003600082815260200190815260200160002060040160009054906101000a900473ffffffffffffffffffffffffffffffffffffffff1673ffffffffffffffffffffffffffffffffffffffff163373ffffffffffffffffffffffffffffffffffffffff1614156102d057600191508092505b80806102db9061140b565b915050610254565b5080610324576040517f08c379a000000000000000000000000000000000000000000000000000000000815260040161031b906111a1565b60405180910390fd5b6040518060a00160405280600254815260200142815260200183815260200185815260200184815250600460006002548152602001908152602001600020600082015181600001556020820151816001015560408201518160020155606082015181600301908051906020019061039c929190610dbb565b5060808201518160040190805190602001906103b9929190610dbb565b509050507f365fc80e9fcd4fe27d246d922fba4dd14a399681f8062563067aa93b1f7c850c600254428487876040516103f695949392919061127d565b60405180910390a1600260008154809291906104119061140b565b919050555050505050565b600082511161042a57600080fd5b60128251111561043957600080fd5b60006001905060006001905060005b600154811015610586576104fa85600360008481526020019081526020016000206002018054610477906113d9565b80601f01602080910402602001604051908101604052809291908181526020018280546104a3906113d9565b80156104f05780601f106104c5576101008083540402835291602001916104f0565b820191906000526020600020905b8154815290600101906020018083116104d357829003601f168201915b5050505050610d8d565b1561050457600092505b6003600082815260200190815260200160002060040160009054906101000a900473ffffffffffffffffffffffffffffffffffffffff1673ffffffffffffffffffffffffffffffffffffffff163373ffffffffffffffffffffffffffffffffffffffff16141561057357600091505b808061057e9061140b565b915050610448565b50816105c7576040517f08c379a00000000000000000000000000000000000000000000000000000000081526004016105be906111e1565b60405180910390fd5b80610607576040517f08c379a00000000000000000000000000000000000000000000000000000000081526004016105fe90611181565b60405180910390fd5b6040518060a0016040528060015481526020014281526020018581526020018481526020013373ffffffffffffffffffffffffffffffffffffffff168152506003600060015481526020019081526020016000206000820151816000015560208201518160010155604082015181600201908051906020019061068b929190610dbb565b5060608201518160030190805190602001906106a8929190610dbb565b5060808201518160040160006101000a81548173ffffffffffffffffffffffffffffffffffffffff021916908373ffffffffffffffffffffffffffffffffffffffff1602179055509050507f53cdbd9177ca274f5d2f11e412011c12f973fc3ac020245a31a51e0dcb5840a06001544286863360405161072c95949392919061121c565b60405180910390a1600160008154809291906107479061140b565b919050555050505050565b60015481565b6003602052806000526040600020600091509050806000015490806001015490806002018054610787906113d9565b80601f01602080910402602001604051908101604052809291908181526020018280546107b3906113d9565b80156108005780601f106107d557610100808354040283529160200191610800565b820191906000526020600020905b8154815290600101906020018083116107e357829003601f168201915b505050505090806003018054610815906113d9565b80601f0160208091040260200160405190810160405280929190818152602001828054610841906113d9565b801561088e5780601f106108635761010080835404028352916020019161088e565b820191906000526020600020905b81548152906001019060200180831161087157829003601f168201915b5050505050908060040160009054906101000a900473ffffffffffffffffffffffffffffffffffffffff16905085565b60046020528060005260406000206000915090508060000154908060010154908060020154908060030180546108f3906113d9565b80601f016020809104026020016040519081016040528092919081815260200182805461091f906113d9565b801561096c5780601f106109415761010080835404028352916020019161096c565b820191906000526020600020905b81548152906001019060200180831161094f57829003601f168201915b505050505090806004018054610981906113d9565b80601f01602080910402602001604051908101604052809291908181526020018280546109ad906113d9565b80156109fa5780601f106109cf576101008083540402835291602001916109fa565b820191906000526020600020905b8154815290600101906020018083116109dd57829003601f168201915b5050505050905085565b6000825111610a1257600080fd5b601282511115610a2157600080fd5b60006001905060008060005b600154811015610bd857610adf86600360008481526020019081526020016000206002018054610a5c906113d9565b80601f0160208091040260200160405190810160405280929190818152602001828054610a88906113d9565b8015610ad55780601f10610aaa57610100808354040283529160200191610ad5565b820191906000526020600020905b815481529060010190602001808311610ab857829003601f168201915b5050505050610d8d565b15610b53576003600082815260200190815260200160002060040160009054906101000a900473ffffffffffffffffffffffffffffffffffffffff1673ffffffffffffffffffffffffffffffffffffffff163373ffffffffffffffffffffffffffffffffffffffff1614610b5257600093505b5b6003600082815260200190815260200160002060040160009054906101000a900473ffffffffffffffffffffffffffffffffffffffff1673ffffffffffffffffffffffffffffffffffffffff163373ffffffffffffffffffffffffffffffffffffffff161415610bc557600191508092505b8080610bd09061140b565b915050610a2d565b5082610c19576040517f08c379a0000000000000000000000000000000000000000000000000000000008152600401610c10906111e1565b60405180910390fd5b80610c59576040517f08c379a0000000000000000000000000000000000000000000000000000000008152600401610c50906111c1565b60405180910390fd5b6040518060a001604052808381526020014281526020018681526020018581526020013373ffffffffffffffffffffffffffffffffffffffff168152506003600084815260200190815260200160002060008201518160000155602082015181600101556040820151816002019080519060200190610cd9929190610dbb565b506060820151816003019080519060200190610cf6929190610dbb565b5060808201518160040160006101000a81548173ffffffffffffffffffffffffffffffffffffffff021916908373ffffffffffffffffffffffffffffffffffffffff1602179055509050507f190fcc6a2586ceb67e6660d6f141fc6ee5143a9843e0f6635d83ae1ee5b6353c8242878733604051610d7895949392919061121c565b60405180910390a15050505050565b60025481565b60008151835114610da15760009050610db5565b818051906020012083805190602001201490505b92915050565b828054610dc7906113d9565b90600052602060002090601f016020900481019282610de95760008555610e30565b82601f10610e0257805160ff1916838001178555610e30565b82800160010185558215610e30579182015b82811115610e2f578251825591602001919060010190610e14565b5b509050610e3d9190610e41565b5090565b5b80821115610e5a576000816000905550600101610e42565b5090565b6000610e71610e6c8461130f565b6112de565b905082815260208101848484011115610e8957600080fd5b610e94848285611397565b509392505050565b600082601f830112610ead57600080fd5b8135610ebd848260208601610e5e565b91505092915050565b600081359050610ed5816114f2565b92915050565b60008060408385031215610eee57600080fd5b600083013567ffffffffffffffff811115610f0857600080fd5b610f1485828601610e9c565b925050602083013567ffffffffffffffff811115610f3157600080fd5b610f3d85828601610e9c565b9150509250929050565b600060208284031215610f5957600080fd5b6000610f6784828501610ec6565b91505092915050565b610f798161135b565b82525050565b6000610f8a8261133f565b610f94818561134a565b9350610fa48185602086016113a6565b610fad816114e1565b840191505092915050565b6000610fc560358361134a565b91507f506f657420616c72656164792065786973747320666f7220746869732061636360008301527f6f756e742c2075706461746520696e73746561642e00000000000000000000006020830152604082019050919050565b600061102b60478361134a565b91507f4e6f20706f65742065786973747320666f7220746869732077616c6c65742e2060008301527f5365747570206173206120706f6574206265666f7265206372656174696e672060208301527f6120706f656d2e000000000000000000000000000000000000000000000000006040830152606082019050919050565b60006110b760218361134a565b91507f54686572652773206e6f20706f657420666f722074686973206163636f756e7460008301527f2e000000000000000000000000000000000000000000000000000000000000006020830152604082019050919050565b600061111d601c8361134a565b91507f54686174206e616d6520697320616c726561647920696e207573652e000000006000830152602082019050919050565b6111598161138d565b82525050565b600060208201905081810360008301526111798184610f7f565b905092915050565b6000602082019050818103600083015261119a81610fb8565b9050919050565b600060208201905081810360008301526111ba8161101e565b9050919050565b600060208201905081810360008301526111da816110aa565b9050919050565b600060208201905081810360008301526111fa81611110565b9050919050565b60006020820190506112166000830184611150565b92915050565b600060a0820190506112316000830188611150565b61123e6020830187611150565b81810360408301526112508186610f7f565b905081810360608301526112648185610f7f565b90506112736080830184610f70565b9695505050505050565b600060a0820190506112926000830188611150565b61129f6020830187611150565b6112ac6040830186611150565b81810360608301526112be8185610f7f565b905081810360808301526112d28184610f7f565b90509695505050505050565b6000604051905081810181811067ffffffffffffffff82111715611305576113046114b2565b5b8060405250919050565b600067ffffffffffffffff82111561132a576113296114b2565b5b601f19601f8301169050602081019050919050565b600081519050919050565b600082825260208201905092915050565b60006113668261136d565b9050919050565b600073ffffffffffffffffffffffffffffffffffffffff82169050919050565b6000819050919050565b82818337600083830152505050565b60005b838110156113c45780820151818401526020810190506113a9565b838111156113d3576000848401525b50505050565b600060028204905060018216806113f157607f821691505b6020821081141561140557611404611483565b5b50919050565b60006114168261138d565b91507fffffffffffffffffffffffffffffffffffffffffffffffffffffffffffffffff82141561144957611448611454565b5b600182019050919050565b7f4e487b7100000000000000000000000000000000000000000000000000000000600052601160045260246000fd5b7f4e487b7100000000000000000000000000000000000000000000000000000000600052602260045260246000fd5b7f4e487b7100000000000000000000000000000000000000000000000000000000600052604160045260246000fd5b6000601f19601f8301169050919050565b6114fb8161138d565b811461150657600080fd5b5056fea2646970667358221220bff7a5229e35293bd5a590b87ac9936a03171f3995c6a42fad831ff4a1a762d464736f6c63430008000033",
  "immutableReferences": {},
  "source": "// SPDX-License-Identifier: MIT\npragma solidity ^0.8.0;\n\ncontract NaiveSonnetPub {\n    string public name;\n    uint public poetCount = 0;\n    uint public poemCount = 0;\n    mapping(uint => Poet) public poets;\n    mapping(uint => Poem) public poems;\n\n    struct Poet {\n        uint id;\n        uint createdAt;\n        string name;\n        string pfpUrl;\n        address payable wallet;\n    }\n\n    struct Poem {\n        uint id;\n        uint createdAt;\n        uint poetId;\n        string name;\n        string content;\n    }\n\n    event PoetAdded(\n        uint id,\n        uint createdAt,\n        string name,\n        string pfpUrl,\n        address payable wallet\n    );\n\n    event PoetUpdated(\n        uint id,\n        uint createdAt,\n        string name,\n        string pfpUrl,\n        address payable wallet\n    );\n\n    event PoemAdded(\n        uint id,\n        uint createdAt,\n        uint poetId,\n        string name,\n        string content\n    );\n\n    constructor() {\n        name = \"Naive Sonnet Publisher\";\n    }\n\n    function updatePoet(string memory _name, string memory _pfpUrl) public {\n        // Require name to exist and be shorter than or equal 18 chars\n        require(bytes(_name).length > 0);\n        require(bytes(_name).length <= 18);\n\n        // Require name be unique #naive O(n)\n        bool uniqueName = true;\n\n        // Find poet matching wallet address\n        uint accountPoetId = 0;\n        bool poetFound = false;\n\n        for (uint256 i = 0; i < poetCount; i ++) {\n            if(hashCompareWithLengthCheck(_name, poets[i].name)) {\n                if(payable(msg.sender) != poets[i].wallet) {\n                    uniqueName = false;\n                }\n            }\n            if(payable(msg.sender) == poets[i].wallet) {\n                poetFound = true;\n                accountPoetId = i;\n            }\n        }\n        require(uniqueName, \"That name is already in use.\");\n        require(poetFound, \"There's no poet for this account.\");\n\n        poets[accountPoetId] = Poet(accountPoetId, block.timestamp, _name, _pfpUrl, payable(msg.sender));\n        \n        emit PoetUpdated(accountPoetId, block.timestamp, _name, _pfpUrl, payable(msg.sender));\n    }\n\n    function addPoet(string memory _name, string memory _pfpUrl) public {\n        // Require name to exist and be shorter than or equal 18 chars\n        require(bytes(_name).length > 0);\n        require(bytes(_name).length <= 18);\n\n        // Require name be unique #naive O(n)\n        bool uniqueName = true;\n        bool newAccount = true;\n        for (uint256 i = 0; i < poetCount; i ++) {\n            if(hashCompareWithLengthCheck(_name, poets[i].name)) {\n                uniqueName = false;\n            }\n            if(payable(msg.sender) == poets[i].wallet) {\n                newAccount = false;\n            }\n        }\n        require(uniqueName, \"That name is already in use.\");\n        require(newAccount, \"Poet already exists for this account, update instead.\");\n\n        poets[poetCount] = Poet(poetCount, block.timestamp, _name, _pfpUrl, payable(msg.sender));\n        emit PoetAdded(poetCount, block.timestamp, _name, _pfpUrl, payable(msg.sender));\n\n        poetCount++;\n    }\n\n    function addPoem(string memory _name, string memory _content) public {\n        // Require content to exist and be less than 1024 byte length\n        require(bytes(_content).length > 0);\n        require(bytes(_content).length < 1024);\n\n        // Require there to be a poet for the wallet address\n        uint poetId = 0;\n        bool poetFound = false;\n        for (uint256 i = 0; i < poetCount; i ++) {\n            if(msg.sender == poets[i].wallet) {\n                poetFound = true;\n                poetId = i;\n            }\n        }\n        require(poetFound, \"No poet exists for this wallet. Setup as a poet before creating a poem.\");\n        \n        poems[poemCount] = Poem(poemCount, block.timestamp, poetId, _name, _content);\n        emit PoemAdded(poemCount, block.timestamp, poetId, _name, _content);\n\n        poemCount++;\n    }\n\n    function hashCompareWithLengthCheck(string memory a, string memory b) internal pure returns (bool) {\n        if(bytes(a).length != bytes(b).length) {\n            return false;\n        } else {\n            return keccak256(bytes(a)) == keccak256(bytes(b));\n        }\n    }\n}",
  "sourcePath": "/Users/esc/Code/sonnet/contracts/NaiveSonnetPub.sol",
  "compiler": {
    "name": "solc",
    "version": "0.8.0+commit.c7dfd78e.Emscripten.clang"
  },
  "schemaVersion": "3.4.4",
  "updatedAt": "2022-02-19T00:04:54.326Z",
  "devdoc": {
    "kind": "dev",
    "methods": {},
    "version": 1
  },
  "userdoc": {
    "kind": "user",
    "methods": {},
    "version": 1
  }
}