{
  "contractName": "SonnetToken",
  "abi": [
    {
      "inputs": [],
      "stateMutability": "nonpayable",
      "type": "constructor"
    },
    {
      "anonymous": false,
      "inputs": [
        {
          "indexed": true,
          "internalType": "address",
          "name": "owner",
          "type": "address"
        },
        {
          "indexed": true,
          "internalType": "address",
          "name": "approved",
          "type": "address"
        },
        {
          "indexed": true,
          "internalType": "uint256",
          "name": "tokenId",
          "type": "uint256"
        }
      ],
      "name": "Approval",
      "type": "event"
    },
    {
      "anonymous": false,
      "inputs": [
        {
          "indexed": true,
          "internalType": "address",
          "name": "owner",
          "type": "address"
        },
        {
          "indexed": true,
          "internalType": "address",
          "name": "operator",
          "type": "address"
        },
        {
          "indexed": false,
          "internalType": "bool",
          "name": "approved",
          "type": "bool"
        }
      ],
      "name": "ApprovalForAll",
      "type": "event"
    },
    {
      "anonymous": false,
      "inputs": [
        {
          "indexed": true,
          "internalType": "address",
          "name": "previousOwner",
          "type": "address"
        },
        {
          "indexed": true,
          "internalType": "address",
          "name": "newOwner",
          "type": "address"
        }
      ],
      "name": "OwnershipTransferred",
      "type": "event"
    },
    {
      "anonymous": false,
      "inputs": [
        {
          "indexed": true,
          "internalType": "address",
          "name": "from",
          "type": "address"
        },
        {
          "indexed": true,
          "internalType": "address",
          "name": "to",
          "type": "address"
        },
        {
          "indexed": true,
          "internalType": "uint256",
          "name": "tokenId",
          "type": "uint256"
        }
      ],
      "name": "Transfer",
      "type": "event"
    },
    {
      "inputs": [
        {
          "internalType": "address",
          "name": "to",
          "type": "address"
        },
        {
          "internalType": "uint256",
          "name": "tokenId",
          "type": "uint256"
        }
      ],
      "name": "approve",
      "outputs": [],
      "stateMutability": "nonpayable",
      "type": "function"
    },
    {
      "inputs": [
        {
          "internalType": "address",
          "name": "owner",
          "type": "address"
        }
      ],
      "name": "balanceOf",
      "outputs": [
        {
          "internalType": "uint256",
          "name": "",
          "type": "uint256"
        }
      ],
      "stateMutability": "view",
      "type": "function"
    },
    {
      "inputs": [
        {
          "internalType": "uint256",
          "name": "tokenId",
          "type": "uint256"
        }
      ],
      "name": "getApproved",
      "outputs": [
        {
          "internalType": "address",
          "name": "",
          "type": "address"
        }
      ],
      "stateMutability": "view",
      "type": "function"
    },
    {
      "inputs": [
        {
          "internalType": "address",
          "name": "owner",
          "type": "address"
        },
        {
          "internalType": "address",
          "name": "operator",
          "type": "address"
        }
      ],
      "name": "isApprovedForAll",
      "outputs": [
        {
          "internalType": "bool",
          "name": "",
          "type": "bool"
        }
      ],
      "stateMutability": "view",
      "type": "function"
    },
    {
      "inputs": [],
      "name": "name",
      "outputs": [
        {
          "internalType": "string",
          "name": "",
          "type": "string"
        }
      ],
      "stateMutability": "view",
      "type": "function"
    },
    {
      "inputs": [],
      "name": "owner",
      "outputs": [
        {
          "internalType": "address",
          "name": "",
          "type": "address"
        }
      ],
      "stateMutability": "view",
      "type": "function"
    },
    {
      "inputs": [
        {
          "internalType": "uint256",
          "name": "tokenId",
          "type": "uint256"
        }
      ],
      "name": "ownerOf",
      "outputs": [
        {
          "internalType": "address",
          "name": "",
          "type": "address"
        }
      ],
      "stateMutability": "view",
      "type": "function"
    },
    {
      "inputs": [],
      "name": "renounceOwnership",
      "outputs": [],
      "stateMutability": "nonpayable",
      "type": "function"
    },
    {
      "inputs": [
        {
          "internalType": "address",
          "name": "from",
          "type": "address"
        },
        {
          "internalType": "address",
          "name": "to",
          "type": "address"
        },
        {
          "internalType": "uint256",
          "name": "tokenId",
          "type": "uint256"
        }
      ],
      "name": "safeTransferFrom",
      "outputs": [],
      "stateMutability": "nonpayable",
      "type": "function"
    },
    {
      "inputs": [
        {
          "internalType": "address",
          "name": "from",
          "type": "address"
        },
        {
          "internalType": "address",
          "name": "to",
          "type": "address"
        },
        {
          "internalType": "uint256",
          "name": "tokenId",
          "type": "uint256"
        },
        {
          "internalType": "bytes",
          "name": "_data",
          "type": "bytes"
        }
      ],
      "name": "safeTransferFrom",
      "outputs": [],
      "stateMutability": "nonpayable",
      "type": "function"
    },
    {
      "inputs": [
        {
          "internalType": "address",
          "name": "operator",
          "type": "address"
        },
        {
          "internalType": "bool",
          "name": "approved",
          "type": "bool"
        }
      ],
      "name": "setApprovalForAll",
      "outputs": [],
      "stateMutability": "nonpayable",
      "type": "function"
    },
    {
      "inputs": [
        {
          "internalType": "bytes4",
          "name": "interfaceId",
          "type": "bytes4"
        }
      ],
      "name": "supportsInterface",
      "outputs": [
        {
          "internalType": "bool",
          "name": "",
          "type": "bool"
        }
      ],
      "stateMutability": "view",
      "type": "function"
    },
    {
      "inputs": [],
      "name": "symbol",
      "outputs": [
        {
          "internalType": "string",
          "name": "",
          "type": "string"
        }
      ],
      "stateMutability": "view",
      "type": "function"
    },
    {
      "inputs": [
        {
          "internalType": "address",
          "name": "from",
          "type": "address"
        },
        {
          "internalType": "address",
          "name": "to",
          "type": "address"
        },
        {
          "internalType": "uint256",
          "name": "tokenId",
          "type": "uint256"
        }
      ],
      "name": "transferFrom",
      "outputs": [],
      "stateMutability": "nonpayable",
      "type": "function"
    },
    {
      "inputs": [
        {
          "internalType": "address",
          "name": "newOwner",
          "type": "address"
        }
      ],
      "name": "transferOwnership",
      "outputs": [],
      "stateMutability": "nonpayable",
      "type": "function"
    },
    {
      "inputs": [
        {
          "internalType": "uint256",
          "name": "tokenId",
          "type": "uint256"
        }
      ],
      "name": "tokenURI",
      "outputs": [
        {
          "internalType": "string",
          "name": "",
          "type": "string"
        }
      ],
      "stateMutability": "view",
      "type": "function"
    },
    {
      "inputs": [],
      "name": "mint",
      "outputs": [],
      "stateMutability": "nonpayable",
      "type": "function"
    },
    {
      "inputs": [],
      "name": "ownerMint",
      "outputs": [],
      "stateMutability": "nonpayable",
      "type": "function"
    }
  ],
  "bytecode": "0x6080604052604051806080016040528060405180608001604052806040518060400160405280600581526020017f4f4e455f6100000000000000000000000000000000000000000000000000000081525081526020016040518060400160405280600581526020017f4f4e455f6200000000000000000000000000000000000000000000000000000081525081526020016040518060400160405280600581526020017f4f4e455f6300000000000000000000000000000000000000000000000000000081525081526020016040518060400160405280600581526020017f4f4e455f64000000000000000000000000000000000000000000000000000000815250815250815260200160405180608001604052806040518060400160405280600581526020017f54574f5f6100000000000000000000000000000000000000000000000000000081525081526020016040518060400160405280600581526020017f54574f5f6200000000000000000000000000000000000000000000000000000081525081526020016040518060400160405280600581526020017f54574f5f6300000000000000000000000000000000000000000000000000000081525081526020016040518060400160405280600581526020017f54574f5f64000000000000000000000000000000000000000000000000000000815250815250815260200160405180608001604052806040518060400160405280600781526020017f54485245455f610000000000000000000000000000000000000000000000000081525081526020016040518060400160405280600781526020017f54485245455f620000000000000000000000000000000000000000000000000081525081526020016040518060400160405280600781526020017f54485245455f630000000000000000000000000000000000000000000000000081525081526020016040518060400160405280600781526020017f54485245455f6400000000000000000000000000000000000000000000000000815250815250815260200160405180608001604052806040518060400160405280600681526020017f464f55525f61000000000000000000000000000000000000000000000000000081525081526020016040518060400160405280600681526020017f464f55525f62000000000000000000000000000000000000000000000000000081525081526020016040518060400160405280600681526020017f464f55525f63000000000000000000000000000000000000000000000000000081525081526020016040518060400160405280600681526020017f464f55525f640000000000000000000000000000000000000000000000000000815250815250815250600890600462000407929190620005c8565b5061251c6009556101f4600a556000600b556000600c553480156200042b57600080fd5b506040518060400160405280600b81526020017f536f6e6e6574546f6b656e0000000000000000000000000000000000000000008152506040518060400160405280600481526020017f44434c52000000000000000000000000000000000000000000000000000000008152508160009080519060200190620004b09291906200062a565b508060019080519060200190620004c99291906200062a565b5050506001600681905550620004f4620004e8620004fa60201b60201c565b6200050260201b60201c565b6200085f565b600033905090565b6000600760009054906101000a900473ffffffffffffffffffffffffffffffffffffffff16905081600760006101000a81548173ffffffffffffffffffffffffffffffffffffffff021916908373ffffffffffffffffffffffffffffffffffffffff1602179055508173ffffffffffffffffffffffffffffffffffffffff168173ffffffffffffffffffffffffffffffffffffffff167f8be0079c531659141344cd1fd0a4f28419497f9722a3daafe3b4186f6b6457e060405160405180910390a35050565b82805482825590600052602060002090810192821562000617579160200282015b82811115620006165782518290600462000605929190620006bb565b5091602001919060010190620005e9565b5b50905062000626919062000722565b5090565b8280546200063890620007fa565b90600052602060002090601f0160209004810192826200065c5760008555620006a8565b82601f106200067757805160ff1916838001178555620006a8565b82800160010185558215620006a8579182015b82811115620006a75782518255916020019190600101906200068a565b5b509050620006b791906200074a565b5090565b8280548282559060005260206000209081019282156200070f579160200282015b828111156200070e578251829080519060200190620006fd9291906200062a565b5091602001919060010190620006dc565b5b5090506200071e919062000769565b5090565b5b808211156200074657600081816200073c919062000791565b5060010162000723565b5090565b5b80821115620007655760008160009055506001016200074b565b5090565b5b808211156200078d5760008181620007839190620007b4565b506001016200076a565b5090565b5080546000825590600052602060002090810190620007b1919062000769565b50565b508054620007c290620007fa565b6000825580601f10620007d65750620007f7565b601f016020900490600052602060002090810190620007f691906200074a565b5b50565b600060028204905060018216806200081357607f821691505b602082108114156200082a576200082962000830565b5b50919050565b7f4e487b7100000000000000000000000000000000000000000000000000000000600052602260045260246000fd5b6130cd806200086f6000396000f3fe608060405234801561001057600080fd5b50600436106101165760003560e01c8063715018a6116100a2578063b12dc99111610071578063b12dc991146102b9578063b88d4fde146102c3578063c87b56dd146102df578063e985e9c51461030f578063f2fde38b1461033f57610116565b8063715018a6146102575780638da5cb5b1461026157806395d89b411461027f578063a22cb4651461029d57610116565b80631249c58b116100e95780631249c58b146101b557806323b872dd146101bf57806342842e0e146101db5780636352211e146101f757806370a082311461022757610116565b806301ffc9a71461011b57806306fdde031461014b578063081812fc14610169578063095ea7b314610199575b600080fd5b61013560048036038101906101309190611f37565b61035b565b60405161014291906128a8565b60405180910390f35b61015361043d565b60405161016091906128c3565b60405180910390f35b610183600480360381019061017e9190611f89565b6104cf565b6040516101909190612841565b60405180910390f35b6101b360048036038101906101ae9190611efb565b610554565b005b6101bd61066c565b005b6101d960048036038101906101d49190611df5565b610737565b005b6101f560048036038101906101f09190611df5565b610797565b005b610211600480360381019061020c9190611f89565b6107b7565b60405161021e9190612841565b60405180910390f35b610241600480360381019061023c9190611d90565b610869565b60405161024e9190612b05565b60405180910390f35b61025f610921565b005b6102696109a9565b6040516102769190612841565b60405180910390f35b6102876109d3565b60405161029491906128c3565b60405180910390f35b6102b760048036038101906102b29190611ebf565b610a65565b005b6102c1610a7b565b005b6102dd60048036038101906102d89190611e44565b610b53565b005b6102f960048036038101906102f49190611f89565b610bb5565b60405161030691906128c3565b60405180910390f35b61032960048036038101906103249190611db9565b610e08565b60405161033691906128a8565b60405180910390f35b61035960048036038101906103549190611d90565b610e9c565b005b60007f80ac58cd000000000000000000000000000000000000000000000000000000007bffffffffffffffffffffffffffffffffffffffffffffffffffffffff1916827bffffffffffffffffffffffffffffffffffffffffffffffffffffffff1916148061042657507f5b5e139f000000000000000000000000000000000000000000000000000000007bffffffffffffffffffffffffffffffffffffffffffffffffffffffff1916827bffffffffffffffffffffffffffffffffffffffffffffffffffffffff1916145b80610436575061043582610f94565b5b9050919050565b60606000805461044c90612dd3565b80601f016020809104026020016040519081016040528092919081815260200182805461047890612dd3565b80156104c55780601f1061049a576101008083540402835291602001916104c5565b820191906000526020600020905b8154815290600101906020018083116104a857829003601f168201915b5050505050905090565b60006104da82610ffe565b610519576040517f08c379a000000000000000000000000000000000000000000000000000000000815260040161051090612a45565b60405180910390fd5b6004600083815260200190815260200160002060009054906101000a900473ffffffffffffffffffffffffffffffffffffffff169050919050565b600061055f826107b7565b90508073ffffffffffffffffffffffffffffffffffffffff168373ffffffffffffffffffffffffffffffffffffffff1614156105d0576040517f08c379a00000000000000000000000000000000000000000000000000000000081526004016105c790612aa5565b60405180910390fd5b8073ffffffffffffffffffffffffffffffffffffffff166105ef61106a565b73ffffffffffffffffffffffffffffffffffffffff16148061061e575061061d8161061861106a565b610e08565b5b61065d576040517f08c379a0000000000000000000000000000000000000000000000000000000008152600401610654906129c5565b60405180910390fd5b6106678383611072565b505050565b600260065414156106b2576040517f08c379a00000000000000000000000000000000000000000000000000000000081526004016106a990612ae5565b60405180910390fd5b6002600681905550600954600b5410610700576040517f08c379a00000000000000000000000000000000000000000000000000000000081526004016106f790612945565b60405180910390fd5b61071361070b61106a565b600b5461112b565b6001600b60008282546107269190612bc4565b925050819055506001600681905550565b61074861074261106a565b82611149565b610787576040517f08c379a000000000000000000000000000000000000000000000000000000000815260040161077e90612ac5565b60405180910390fd5b610792838383611227565b505050565b6107b283838360405180602001604052806000815250610b53565b505050565b6000806002600084815260200190815260200160002060009054906101000a900473ffffffffffffffffffffffffffffffffffffffff169050600073ffffffffffffffffffffffffffffffffffffffff168173ffffffffffffffffffffffffffffffffffffffff161415610860576040517f08c379a000000000000000000000000000000000000000000000000000000000815260040161085790612a05565b60405180910390fd5b80915050919050565b60008073ffffffffffffffffffffffffffffffffffffffff168273ffffffffffffffffffffffffffffffffffffffff1614156108da576040517f08c379a00000000000000000000000000000000000000000000000000000000081526004016108d1906129e5565b60405180910390fd5b600360008373ffffffffffffffffffffffffffffffffffffffff1673ffffffffffffffffffffffffffffffffffffffff168152602001908152602001600020549050919050565b61092961106a565b73ffffffffffffffffffffffffffffffffffffffff166109476109a9565b73ffffffffffffffffffffffffffffffffffffffff161461099d576040517f08c379a000000000000000000000000000000000000000000000000000000000815260040161099490612a65565b60405180910390fd5b6109a76000611483565b565b6000600760009054906101000a900473ffffffffffffffffffffffffffffffffffffffff16905090565b6060600180546109e290612dd3565b80601f0160208091040260200160405190810160405280929190818152602001828054610a0e90612dd3565b8015610a5b5780601f10610a3057610100808354040283529160200191610a5b565b820191906000526020600020905b815481529060010190602001808311610a3e57829003601f168201915b5050505050905090565b610a77610a7061106a565b8383611549565b5050565b60026006541415610ac1576040517f08c379a0000000000000000000000000000000000000000000000000000000008152600401610ab890612ae5565b60405180910390fd5b6002600681905550600a54600c5410610b0f576040517f08c379a0000000000000000000000000000000000000000000000000000000008152600401610b0690612945565b60405180910390fd5b610b2f610b1a61106a565b600c54600954610b2a9190612bc4565b61112b565b6001600c6000828254610b429190612bc4565b925050819055506001600681905550565b610b64610b5e61106a565b83611149565b610ba3576040517f08c379a0000000000000000000000000000000000000000000000000000000008152600401610b9a90612ac5565b60405180910390fd5b610baf848484846116b6565b50505050565b6060600060405180610120016040528060e58152602001612fb360e5913990506000600a905060005b600880549050811015610dde5760008186604051602001610c00929190612815565b6040516020818303038152906040528051906020012060001c9050600060088381548110610c57577f4e487b7100000000000000000000000000000000000000000000000000000000600052603260045260246000fd5b9060005260206000200160088481548110610c9b577f4e487b7100000000000000000000000000000000000000000000000000000000600052603260045260246000fd5b906000526020600020018054905083610cb49190612e58565b81548110610ceb577f4e487b7100000000000000000000000000000000000000000000000000000000600052603260045260246000fd5b906000526020600020018054610d0090612dd3565b80601f0160208091040260200160405190810160405280929190818152602001828054610d2c90612dd3565b8015610d795780601f10610d4e57610100808354040283529160200191610d79565b820191906000526020600020905b815481529060010190602001808311610d5c57829003601f168201915b5050505050905084610d8a85611712565b82604051602001610d9d939291906127a1565b60405160208183030381529060405294508051600a610dbc9190612c82565b84610dc79190612bc4565b935050508080610dd690612e05565b915050610bde565b5081604051602001610df091906127f3565b60405160208183030381529060405292505050919050565b6000600560008473ffffffffffffffffffffffffffffffffffffffff1673ffffffffffffffffffffffffffffffffffffffff16815260200190815260200160002060008373ffffffffffffffffffffffffffffffffffffffff1673ffffffffffffffffffffffffffffffffffffffff16815260200190815260200160002060009054906101000a900460ff16905092915050565b610ea461106a565b73ffffffffffffffffffffffffffffffffffffffff16610ec26109a9565b73ffffffffffffffffffffffffffffffffffffffff1614610f18576040517f08c379a0000000000000000000000000000000000000000000000000000000008152600401610f0f90612a65565b60405180910390fd5b600073ffffffffffffffffffffffffffffffffffffffff168173ffffffffffffffffffffffffffffffffffffffff161415610f88576040517f08c379a0000000000000000000000000000000000000000000000000000000008152600401610f7f90612905565b60405180910390fd5b610f9181611483565b50565b60007f01ffc9a7000000000000000000000000000000000000000000000000000000007bffffffffffffffffffffffffffffffffffffffffffffffffffffffff1916827bffffffffffffffffffffffffffffffffffffffffffffffffffffffff1916149050919050565b60008073ffffffffffffffffffffffffffffffffffffffff166002600084815260200190815260200160002060009054906101000a900473ffffffffffffffffffffffffffffffffffffffff1673ffffffffffffffffffffffffffffffffffffffff1614159050919050565b600033905090565b816004600083815260200190815260200160002060006101000a81548173ffffffffffffffffffffffffffffffffffffffff021916908373ffffffffffffffffffffffffffffffffffffffff160217905550808273ffffffffffffffffffffffffffffffffffffffff166110e5836107b7565b73ffffffffffffffffffffffffffffffffffffffff167f8c5be1e5ebec7d5bd14f71427d1e84f3dd0314c0f7b2291e5b200ac8c7c3b92560405160405180910390a45050565b6111458282604051806020016040528060008152506118e7565b5050565b600061115482610ffe565b611193576040517f08c379a000000000000000000000000000000000000000000000000000000000815260040161118a906129a5565b60405180910390fd5b600061119e836107b7565b90508073ffffffffffffffffffffffffffffffffffffffff168473ffffffffffffffffffffffffffffffffffffffff16148061120d57508373ffffffffffffffffffffffffffffffffffffffff166111f5846104cf565b73ffffffffffffffffffffffffffffffffffffffff16145b8061121e575061121d8185610e08565b5b91505092915050565b8273ffffffffffffffffffffffffffffffffffffffff16611247826107b7565b73ffffffffffffffffffffffffffffffffffffffff161461129d576040517f08c379a000000000000000000000000000000000000000000000000000000000815260040161129490612a85565b60405180910390fd5b600073ffffffffffffffffffffffffffffffffffffffff168273ffffffffffffffffffffffffffffffffffffffff16141561130d576040517f08c379a000000000000000000000000000000000000000000000000000000000815260040161130490612965565b60405180910390fd5b611318838383611942565b611323600082611072565b6001600360008573ffffffffffffffffffffffffffffffffffffffff1673ffffffffffffffffffffffffffffffffffffffff16815260200190815260200160002060008282546113739190612cdc565b925050819055506001600360008473ffffffffffffffffffffffffffffffffffffffff1673ffffffffffffffffffffffffffffffffffffffff16815260200190815260200160002060008282546113ca9190612bc4565b92505081905550816002600083815260200190815260200160002060006101000a81548173ffffffffffffffffffffffffffffffffffffffff021916908373ffffffffffffffffffffffffffffffffffffffff160217905550808273ffffffffffffffffffffffffffffffffffffffff168473ffffffffffffffffffffffffffffffffffffffff167fddf252ad1be2c89b69c2b068fc378daa952ba7f163c4a11628f55a4df523b3ef60405160405180910390a4505050565b6000600760009054906101000a900473ffffffffffffffffffffffffffffffffffffffff16905081600760006101000a81548173ffffffffffffffffffffffffffffffffffffffff021916908373ffffffffffffffffffffffffffffffffffffffff1602179055508173ffffffffffffffffffffffffffffffffffffffff168173ffffffffffffffffffffffffffffffffffffffff167f8be0079c531659141344cd1fd0a4f28419497f9722a3daafe3b4186f6b6457e060405160405180910390a35050565b8173ffffffffffffffffffffffffffffffffffffffff168373ffffffffffffffffffffffffffffffffffffffff1614156115b8576040517f08c379a00000000000000000000000000000000000000000000000000000000081526004016115af90612985565b60405180910390fd5b80600560008573ffffffffffffffffffffffffffffffffffffffff1673ffffffffffffffffffffffffffffffffffffffff16815260200190815260200160002060008473ffffffffffffffffffffffffffffffffffffffff1673ffffffffffffffffffffffffffffffffffffffff16815260200190815260200160002060006101000a81548160ff0219169083151502179055508173ffffffffffffffffffffffffffffffffffffffff168373ffffffffffffffffffffffffffffffffffffffff167f17307eab39ab6107e8899845ad3d59bd9653f200f220920489ca2b5937696c31836040516116a991906128a8565b60405180910390a3505050565b6116c1848484611227565b6116cd84848484611947565b61170c576040517f08c379a0000000000000000000000000000000000000000000000000000000008152600401611703906128e5565b60405180910390fd5b50505050565b6060600082141561175a576040518060400160405280600181526020017f300000000000000000000000000000000000000000000000000000000000000081525090506118e2565b600082905060005b6000821461178c57808061177590612e05565b915050600a826117859190612c51565b9150611762565b60008167ffffffffffffffff8111156117ce577f4e487b7100000000000000000000000000000000000000000000000000000000600052604160045260246000fd5b6040519080825280601f01601f1916602001820160405280156118005781602001600182028036833780820191505090505b50905060008290505b600086146118da5760018161181e9190612cdc565b90506000600a80886118309190612c51565b61183a9190612c82565b876118459190612cdc565b60306118519190612c1a565b905060008160f81b905080848481518110611895577f4e487b7100000000000000000000000000000000000000000000000000000000600052603260045260246000fd5b60200101907effffffffffffffffffffffffffffffffffffffffffffffffffffffffffffff1916908160001a905350600a886118d19190612c51565b97505050611809565b819450505050505b919050565b6118f18383611ade565b6118fe6000848484611947565b61193d576040517f08c379a0000000000000000000000000000000000000000000000000000000008152600401611934906128e5565b60405180910390fd5b505050565b505050565b60006119688473ffffffffffffffffffffffffffffffffffffffff16611cac565b15611ad1578373ffffffffffffffffffffffffffffffffffffffff1663150b7a0261199161106a565b8786866040518563ffffffff1660e01b81526004016119b3949392919061285c565b602060405180830381600087803b1580156119cd57600080fd5b505af19250505080156119fe57506040513d601f19601f820116820180604052508101906119fb9190611f60565b60015b611a81573d8060008114611a2e576040519150601f19603f3d011682016040523d82523d6000602084013e611a33565b606091505b50600081511415611a79576040517f08c379a0000000000000000000000000000000000000000000000000000000008152600401611a70906128e5565b60405180910390fd5b805181602001fd5b63150b7a0260e01b7bffffffffffffffffffffffffffffffffffffffffffffffffffffffff1916817bffffffffffffffffffffffffffffffffffffffffffffffffffffffff191614915050611ad6565b600190505b949350505050565b600073ffffffffffffffffffffffffffffffffffffffff168273ffffffffffffffffffffffffffffffffffffffff161415611b4e576040517f08c379a0000000000000000000000000000000000000000000000000000000008152600401611b4590612a25565b60405180910390fd5b611b5781610ffe565b15611b97576040517f08c379a0000000000000000000000000000000000000000000000000000000008152600401611b8e90612925565b60405180910390fd5b611ba360008383611942565b6001600360008473ffffffffffffffffffffffffffffffffffffffff1673ffffffffffffffffffffffffffffffffffffffff1681526020019081526020016000206000828254611bf39190612bc4565b92505081905550816002600083815260200190815260200160002060006101000a81548173ffffffffffffffffffffffffffffffffffffffff021916908373ffffffffffffffffffffffffffffffffffffffff160217905550808273ffffffffffffffffffffffffffffffffffffffff16600073ffffffffffffffffffffffffffffffffffffffff167fddf252ad1be2c89b69c2b068fc378daa952ba7f163c4a11628f55a4df523b3ef60405160405180910390a45050565b600080823b905060008111915050919050565b6000611cd2611ccd84612b51565b612b20565b905082815260208101848484011115611cea57600080fd5b611cf5848285612d91565b509392505050565b600081359050611d0c81612f56565b92915050565b600081359050611d2181612f6d565b92915050565b600081359050611d3681612f84565b92915050565b600081519050611d4b81612f84565b92915050565b600082601f830112611d6257600080fd5b8135611d72848260208601611cbf565b91505092915050565b600081359050611d8a81612f9b565b92915050565b600060208284031215611da257600080fd5b6000611db084828501611cfd565b91505092915050565b60008060408385031215611dcc57600080fd5b6000611dda85828601611cfd565b9250506020611deb85828601611cfd565b9150509250929050565b600080600060608486031215611e0a57600080fd5b6000611e1886828701611cfd565b9350506020611e2986828701611cfd565b9250506040611e3a86828701611d7b565b9150509250925092565b60008060008060808587031215611e5a57600080fd5b6000611e6887828801611cfd565b9450506020611e7987828801611cfd565b9350506040611e8a87828801611d7b565b925050606085013567ffffffffffffffff811115611ea757600080fd5b611eb387828801611d51565b91505092959194509250565b60008060408385031215611ed257600080fd5b6000611ee085828601611cfd565b9250506020611ef185828601611d12565b9150509250929050565b60008060408385031215611f0e57600080fd5b6000611f1c85828601611cfd565b9250506020611f2d85828601611d7b565b9150509250929050565b600060208284031215611f4957600080fd5b6000611f5784828501611d27565b91505092915050565b600060208284031215611f7257600080fd5b6000611f8084828501611d3c565b91505092915050565b600060208284031215611f9b57600080fd5b6000611fa984828501611d7b565b91505092915050565b611fbb81612d10565b82525050565b611fca81612d22565b82525050565b6000611fdb82612b81565b611fe58185612b97565b9350611ff5818560208601612da0565b611ffe81612f45565b840191505092915050565b600061201482612b8c565b61201e8185612ba8565b935061202e818560208601612da0565b61203781612f45565b840191505092915050565b600061204d82612b8c565b6120578185612bb9565b9350612067818560208601612da0565b80840191505092915050565b6000612080603283612ba8565b91507f4552433732313a207472616e7366657220746f206e6f6e20455243373231526560008301527f63656976657220696d706c656d656e74657200000000000000000000000000006020830152604082019050919050565b60006120e6602683612ba8565b91507f4f776e61626c653a206e6577206f776e657220697320746865207a65726f206160008301527f64647265737300000000000000000000000000000000000000000000000000006020830152604082019050919050565b600061214c601c83612ba8565b91507f4552433732313a20746f6b656e20616c7265616479206d696e746564000000006000830152602082019050919050565b600061218c602183612ba8565b91507f416c6c206465636c61726174696f6e732068617665206265656e206d696e746560008301527f64000000000000000000000000000000000000000000000000000000000000006020830152604082019050919050565b60006121f2602483612ba8565b91507f4552433732313a207472616e7366657220746f20746865207a65726f2061646460008301527f72657373000000000000000000000000000000000000000000000000000000006020830152604082019050919050565b6000612258601983612ba8565b91507f4552433732313a20617070726f766520746f2063616c6c6572000000000000006000830152602082019050919050565b6000612298600983612bb9565b91507f3c7465787420783d2200000000000000000000000000000000000000000000006000830152600982019050919050565b60006122d8602c83612ba8565b91507f4552433732313a206f70657261746f7220717565727920666f72206e6f6e657860008301527f697374656e7420746f6b656e00000000000000000000000000000000000000006020830152604082019050919050565b600061233e603883612ba8565b91507f4552433732313a20617070726f76652063616c6c6572206973206e6f74206f7760008301527f6e6572206e6f7220617070726f76656420666f7220616c6c00000000000000006020830152604082019050919050565b60006123a4602a83612ba8565b91507f4552433732313a2062616c616e636520717565727920666f7220746865207a6560008301527f726f2061646472657373000000000000000000000000000000000000000000006020830152604082019050919050565b600061240a602983612ba8565b91507f4552433732313a206f776e657220717565727920666f72206e6f6e657869737460008301527f656e7420746f6b656e00000000000000000000000000000000000000000000006020830152604082019050919050565b6000612470600783612bb9565b91507f3c2f746578743e000000000000000000000000000000000000000000000000006000830152600782019050919050565b60006124b0602083612ba8565b91507f4552433732313a206d696e7420746f20746865207a65726f20616464726573736000830152602082019050919050565b60006124f0602c83612ba8565b91507f4552433732313a20617070726f76656420717565727920666f72206e6f6e657860008301527f697374656e7420746f6b656e00000000000000000000000000000000000000006020830152604082019050919050565b6000612556602083612ba8565b91507f4f776e61626c653a2063616c6c6572206973206e6f7420746865206f776e65726000830152602082019050919050565b6000612596602983612ba8565b91507f4552433732313a207472616e73666572206f6620746f6b656e2074686174206960008301527f73206e6f74206f776e00000000000000000000000000000000000000000000006020830152604082019050919050565b60006125fc602183612ba8565b91507f4552433732313a20617070726f76616c20746f2063757272656e74206f776e6560008301527f72000000000000000000000000000000000000000000000000000000000000006020830152604082019050919050565b6000612662603183612ba8565b91507f4552433732313a207472616e736665722063616c6c6572206973206e6f74206f60008301527f776e6572206e6f7220617070726f7665640000000000000000000000000000006020830152604082019050919050565b60006126c8601683612bb9565b91507f2220793d2231302220636c6173733d2262617365223e000000000000000000006000830152601682019050919050565b6000612708601f83612ba8565b91507f5265656e7472616e637947756172643a207265656e7472616e742063616c6c006000830152602082019050919050565b6000612748600683612bb9565b91507f3c2f7376673e00000000000000000000000000000000000000000000000000006000830152600682019050919050565b61278481612d7a565b82525050565b61279b61279682612d7a565b612e4e565b82525050565b60006127ad8286612042565b91506127b88261228b565b91506127c48285612042565b91506127cf826126bb565b91506127db8284612042565b91506127e682612463565b9150819050949350505050565b60006127ff8284612042565b915061280a8261273b565b915081905092915050565b6000612821828561278a565b602082019150612831828461278a565b6020820191508190509392505050565b60006020820190506128566000830184611fb2565b92915050565b60006080820190506128716000830187611fb2565b61287e6020830186611fb2565b61288b604083018561277b565b818103606083015261289d8184611fd0565b905095945050505050565b60006020820190506128bd6000830184611fc1565b92915050565b600060208201905081810360008301526128dd8184612009565b905092915050565b600060208201905081810360008301526128fe81612073565b9050919050565b6000602082019050818103600083015261291e816120d9565b9050919050565b6000602082019050818103600083015261293e8161213f565b9050919050565b6000602082019050818103600083015261295e8161217f565b9050919050565b6000602082019050818103600083015261297e816121e5565b9050919050565b6000602082019050818103600083015261299e8161224b565b9050919050565b600060208201905081810360008301526129be816122cb565b9050919050565b600060208201905081810360008301526129de81612331565b9050919050565b600060208201905081810360008301526129fe81612397565b9050919050565b60006020820190508181036000830152612a1e816123fd565b9050919050565b60006020820190508181036000830152612a3e816124a3565b9050919050565b60006020820190508181036000830152612a5e816124e3565b9050919050565b60006020820190508181036000830152612a7e81612549565b9050919050565b60006020820190508181036000830152612a9e81612589565b9050919050565b60006020820190508181036000830152612abe816125ef565b9050919050565b60006020820190508181036000830152612ade81612655565b9050919050565b60006020820190508181036000830152612afe816126fb565b9050919050565b6000602082019050612b1a600083018461277b565b92915050565b6000604051905081810181811067ffffffffffffffff82111715612b4757612b46612f16565b5b8060405250919050565b600067ffffffffffffffff821115612b6c57612b6b612f16565b5b601f19601f8301169050602081019050919050565b600081519050919050565b600081519050919050565b600082825260208201905092915050565b600082825260208201905092915050565b600081905092915050565b6000612bcf82612d7a565b9150612bda83612d7a565b9250827fffffffffffffffffffffffffffffffffffffffffffffffffffffffffffffffff03821115612c0f57612c0e612e89565b5b828201905092915050565b6000612c2582612d84565b9150612c3083612d84565b92508260ff03821115612c4657612c45612e89565b5b828201905092915050565b6000612c5c82612d7a565b9150612c6783612d7a565b925082612c7757612c76612eb8565b5b828204905092915050565b6000612c8d82612d7a565b9150612c9883612d7a565b9250817fffffffffffffffffffffffffffffffffffffffffffffffffffffffffffffffff0483118215151615612cd157612cd0612e89565b5b828202905092915050565b6000612ce782612d7a565b9150612cf283612d7a565b925082821015612d0557612d04612e89565b5b828203905092915050565b6000612d1b82612d5a565b9050919050565b60008115159050919050565b60007fffffffff0000000000000000000000000000000000000000000000000000000082169050919050565b600073ffffffffffffffffffffffffffffffffffffffff82169050919050565b6000819050919050565b600060ff82169050919050565b82818337600083830152505050565b60005b83811015612dbe578082015181840152602081019050612da3565b83811115612dcd576000848401525b50505050565b60006002820490506001821680612deb57607f821691505b60208210811415612dff57612dfe612ee7565b5b50919050565b6000612e1082612d7a565b91507fffffffffffffffffffffffffffffffffffffffffffffffffffffffffffffffff821415612e4357612e42612e89565b5b600182019050919050565b6000819050919050565b6000612e6382612d7a565b9150612e6e83612d7a565b925082612e7e57612e7d612eb8565b5b828206905092915050565b7f4e487b7100000000000000000000000000000000000000000000000000000000600052601160045260246000fd5b7f4e487b7100000000000000000000000000000000000000000000000000000000600052601260045260246000fd5b7f4e487b7100000000000000000000000000000000000000000000000000000000600052602260045260246000fd5b7f4e487b7100000000000000000000000000000000000000000000000000000000600052604160045260246000fd5b6000601f19601f8301169050919050565b612f5f81612d10565b8114612f6a57600080fd5b50565b612f7681612d22565b8114612f8157600080fd5b50565b612f8d81612d2e565b8114612f9857600080fd5b50565b612fa481612d7a565b8114612faf57600080fd5b5056fe3c73766720786d6c6e733d22687474703a2f2f7777772e77332e6f72672f323030302f73766722207072657365727665417370656374526174696f3d22784d696e594d696e206d656574222076696577426f783d223020302033353020333530223e3c7374796c653e2e62617365207b2066696c6c3a20626c61636b3b20666f6e742d66616d696c793a2073657269663b20666f6e742d73697a653a20313270783b207d3c2f7374796c653e3c726563742078203d20223130222077696474683d223130302522206865696768743d2231303025222066696c6c3d22776869746522202f3ea264697066735822122008b15adffa48dca2a8ed885ccfe6268a9ab6682b45e03b958c6b0388576c3dba64736f6c63430008000033",
  "immutableReferences": {},
  "source": "// SPDX-License-Identifier: GPL-3.0-or-later\npragma solidity ^0.8.0;\n\nimport { ERC721 } from \"@openzeppelin/contracts/token/ERC721/ERC721.sol\";\nimport { Ownable } from \"@openzeppelin/contracts/access/Ownable.sol\";\nimport { ReentrancyGuard } from \"@openzeppelin/contracts/security/ReentrancyGuard.sol\";\n\ncontract SonnetToken is ERC721, ReentrancyGuard, Ownable {\n    string[][] private words = [\n        [\"ONE_a\", \"ONE_b\", \"ONE_c\", \"ONE_d\"],\n        [\"TWO_a\", \"TWO_b\", \"TWO_c\", \"TWO_d\"],\n        [\"THREE_a\", \"THREE_b\", \"THREE_c\", \"THREE_d\"],\n        [\"FOUR_a\", \"FOUR_b\", \"FOUR_c\", \"FOUR_d\"]\n    ];\n\n    uint256 PUBLIC_SUPPLY = 9500;\n    uint256 OWNER_SUPPLY = 500;\n    uint256 publicMintCount = 0;\n    uint256 ownerMintCount = 0;\n\n    function tokenURI(uint256 tokenId) override public view returns (string memory) {\n        string memory svg = '<svg xmlns=\"http://www.w3.org/2000/svg\" preserveAspectRatio=\"xMinYMin meet\" viewBox=\"0 0 350 350\"><style>.base { fill: black; font-family: serif; font-size: 12px; }</style><rect x = \"10\" width=\"100%\" height=\"100%\" fill=\"white\" />';\n        uint256 x = 10;\n        for (uint256 i = 0; i < words.length; i ++) {\n            uint256 seed = uint256(keccak256(abi.encodePacked(i, tokenId)));\n            string memory word = words[i][seed % words[i].length];\n            svg = string(abi.encodePacked(svg, '<text x=\"', uint_to_str(x), '\" y=\"10\" class=\"base\">', word, '</text>'));\n            x += 10 * bytes(word).length;\n        }\n        return string(abi.encodePacked(svg, '</svg>'));\n    }\n\n    function mint() public nonReentrant {\n        require(publicMintCount < PUBLIC_SUPPLY, \"All declarations have been minted\");\n        _safeMint(_msgSender(), publicMintCount);\n        publicMintCount += 1;\n    }\n\n    function ownerMint() public nonReentrant {\n        require(ownerMintCount < OWNER_SUPPLY, \"All declarations have been minted\");\n        _safeMint(_msgSender(), PUBLIC_SUPPLY + ownerMintCount);\n        ownerMintCount += 1;\n    }\n\n    function uint_to_str(uint256 _i)\n        internal\n        pure\n        returns (string memory _uintAsString)\n    {\n        if (_i == 0) {\n            return \"0\";\n        }\n        uint256 j = _i;\n        uint256 len;\n        while (j != 0) {\n            len++;\n            j /= 10;\n        }\n        bytes memory bstr = new bytes(len);\n        uint256 k = len;\n        while (_i != 0) {\n            k = k - 1;\n            uint8 temp = (48 + uint8(_i - (_i / 10) * 10));\n            bytes1 b1 = bytes1(temp);\n            bstr[k] = b1;\n            _i /= 10;\n        }\n        return string(bstr);\n    }\n\n    constructor() ERC721(\"SonnetToken\", \"DCLR\") Ownable() {}\n}",
  "sourcePath": "/Users/esc/Code/sonnet/contracts/SonnetToken.sol",
  "compiler": {
    "name": "solc",
    "version": "0.8.0+commit.c7dfd78e.Emscripten.clang"
  },
  "schemaVersion": "3.4.4",
  "updatedAt": "2022-02-04T01:25:36.913Z",
  "devdoc": {
    "kind": "dev",
    "methods": {
      "approve(address,uint256)": {
        "details": "See {IERC721-approve}."
      },
      "balanceOf(address)": {
        "details": "See {IERC721-balanceOf}."
      },
      "getApproved(uint256)": {
        "details": "See {IERC721-getApproved}."
      },
      "isApprovedForAll(address,address)": {
        "details": "See {IERC721-isApprovedForAll}."
      },
      "name()": {
        "details": "See {IERC721Metadata-name}."
      },
      "owner()": {
        "details": "Returns the address of the current owner."
      },
      "ownerOf(uint256)": {
        "details": "See {IERC721-ownerOf}."
      },
      "renounceOwnership()": {
        "details": "Leaves the contract without owner. It will not be possible to call `onlyOwner` functions anymore. Can only be called by the current owner. NOTE: Renouncing ownership will leave the contract without an owner, thereby removing any functionality that is only available to the owner."
      },
      "safeTransferFrom(address,address,uint256)": {
        "details": "See {IERC721-safeTransferFrom}."
      },
      "safeTransferFrom(address,address,uint256,bytes)": {
        "details": "See {IERC721-safeTransferFrom}."
      },
      "setApprovalForAll(address,bool)": {
        "details": "See {IERC721-setApprovalForAll}."
      },
      "supportsInterface(bytes4)": {
        "details": "See {IERC165-supportsInterface}."
      },
      "symbol()": {
        "details": "See {IERC721Metadata-symbol}."
      },
      "tokenURI(uint256)": {
        "details": "See {IERC721Metadata-tokenURI}."
      },
      "transferFrom(address,address,uint256)": {
        "details": "See {IERC721-transferFrom}."
      },
      "transferOwnership(address)": {
        "details": "Transfers ownership of the contract to a new account (`newOwner`). Can only be called by the current owner."
      }
    },
    "version": 1
  },
  "userdoc": {
    "kind": "user",
    "methods": {},
    "version": 1
  }
}